{
  "transactions": [
    {
      "hash": "0x1a1ef2f3e22a922cfab8d0ab949f7e23d015cb496b98d0e5fde4faa424511ad0",
      "transactionType": "CALL",
      "contractName": "ChainlinkOracleAdapter",
      "contractAddress": "0x991eb2241b5f2875a5cb4dbba6450b343e8216be",
      "function": "setFeed(address,address)",
      "arguments": [
        "0x0000000000000000000000000000000000000001",
        "0x1C352C8C42eF40F9951C5a251cb1cb0492Ec0e52"
      ],
      "transaction": {
        "from": "0x28482b1279e442f49ee76351801232d58f341cb9",
        "to": "0x991eb2241b5f2875a5cb4dbba6450b343e8216be",
        "gas": "0xce66",
        "value": "0x0",
        "input": "0x40b1eb1000000000000000000000000000000000000000000000000000000000000000010000000000000000000000001c352c8c42ef40f9951c5a251cb1cb0492ec0e52",
        "nonce": "0x80",
        "chainId": "0x66eee"
      },
      "additionalContracts": [],
      "isFixedGasLimit": false
    }
  ],
  "receipts": [
    {
      "status": "0x1",
      "cumulativeGasUsed": "0x9427",
      "logs": [
        {
          "address": "0x991eb2241b5f2875a5cb4dbba6450b343e8216be",
          "topics": [
            "0x3206e79c8cb385b303820bc579358c388d2f7539de2fa2f24644faf6bd0354d1",
            "0x0000000000000000000000000000000000000000000000000000000000000001"
          ],
          "data": "0x0000000000000000000000001c352c8c42ef40f9951c5a251cb1cb0492ec0e52",
          "blockHash": "0x7ca02a1b629362fa9fbee16c1044b7329692e35f9108eb4d3b2b6d50d03f3495",
          "blockNumber": "0xe89c3a9",
          "blockTimestamp": "0x69972aed",
          "transactionHash": "0x1a1ef2f3e22a922cfab8d0ab949f7e23d015cb496b98d0e5fde4faa424511ad0",
          "transactionIndex": "0x1",
          "logIndex": "0x0",
          "removed": false
        }
      ],
      "logsBloom": "0x00000000000000000000200000000000000000000000000000000000000000000000000000000000000000000000000000000000000000200000000040040000000000000000000000000000000000000000000000040000000000800000000000000000000000000000000000000000000000000000000001000000000000000000000000000000000000000000000000000000000000000000000000000000000000000000000000000000000000000000000000000000000000000000000000000000000000000000000000000000000000000002000000000000000040000000000000000000000000000000000000000000000000000000000000000000",
      "type": "0x2",
      "transactionHash": "0x1a1ef2f3e22a922cfab8d0ab949f7e23d015cb496b98d0e5fde4faa424511ad0",
      "transactionIndex": "0x1",
      "blockHash": "0x7ca02a1b629362fa9fbee16c1044b7329692e35f9108eb4d3b2b6d50d03f3495",
      "blockNumber": "0xe89c3a9",
      "gasUsed": "0x9427",
      "effectiveGasPrice": "0x1313ca0",
      "from": "0x28482b1279e442f49ee76351801232d58f341cb9",
      "to": "0x991eb2241b5f2875a5cb4dbba6450b343e8216be",
      "contractAddress": null,
      "gasUsedForL1": "0x255e",
      "l1BlockNumber": "0x9d10d6",
      "timeboosted": false
    }
  ],
  "libraries": [],
  "pending": [],
  "returns": {},
  "timestamp": 1771514606442,
  "chain": 421614,
  "commit": "5c51591"
}