{
  "transactions": [
    {
      "hash": "0x468b27d7d111492b1e6ece5788df78e1b8f4fd5e50327e36348a7ff466046a83",
      "transactionType": "CREATE",
      "contractName": "ChainlinkOracleAdapter",
      "contractAddress": "0x991eb2241b5f2875a5cb4dbba6450b343e8216be",
      "function": null,
      "arguments": null,
      "transaction": {
        "from": "0x28482b1279e442f49ee76351801232d58f341cb9",
        "gas": "0x57875",
        "value": "0x0",
        "input": "0x608080604052346015576103f4908161001a8239f35b5f80fdfe6080806040526004361015610012575f80fd5b5f3560e01c90816340b1eb10146100ff5750806395688c39146100d4578063aaf5eb68146100b2578063caca95a4146100965763fa3572d714610053575f80fd5b34610092576020366003190112610092576001600160a01b0361007461017f565b165f525f602052602060018060a01b0360405f205416604051908152f35b5f80fd5b34610092575f366003190112610092576020604051610e108152f35b34610092575f366003190112610092576020604051670de0b6b3a76400008152f35b346100925760203660031901126100925760206100f76100f261017f565b610207565b604051908152f35b346100925760403660031901126100925761011861017f565b6024356001600160a01b038116929190839003610092576001600160a01b03165f8181526020818152604090912080546001600160a01b03191685179055928252917f3206e79c8cb385b303820bc579358c388d2f7539de2fa2f24644faf6bd0354d191a2005b600435906001600160a01b038216820361009257565b90601f8019910116810190811067ffffffffffffffff8211176101b757604052565b634e487b7160e01b5f52604160045260245ffd5b519069ffffffffffffffffffff8216820361009257565b60ff16604d81116101f357600a0a90565b634e487b7160e01b5f52601160045260245ffd5b6001600160a01b039081165f908152602081905260409020541680156103af57604051633fabe5a360e21b81529060a082600481845afa8015610333575f925f9161035b575b505f83131561034d5742034281116101f357610e101061033e5760206004916040519283809263313ce56760e01b82525afa8015610333575f906102f6575b60ff91501660128110156102c25760120360ff81116101f3576102ae906101e2565b908181029181830414901517156101f35790565b6011190160ff81116101f3576102d7906101e2565b9081156102e2570490565b634e487b7160e01b5f52601260045260245ffd5b506020813d60201161032b575b8161031060209383610195565b81010312610092575160ff811681036100925760ff9061028c565b3d9150610303565b6040513d5f823e3d90fd5b630cd5fa0760e11b5f5260045ffd5b62bfc92160e01b5f5260045ffd5b92505060a0823d60a0116103a7575b8161037760a09383610195565b8101031261009257610388826101cb565b50602082015161039f6080606085015194016101cb565b50915f61024d565b3d915061036a565b6309ac3c4360e41b5f5260045ffdfea2646970667358221220cde1fe0a7b87854e63540705f6e1f6e768ef17dce5777b6a9c46eb3590c8796864736f6c634300081a0033",
        "nonce": "0x24",
        "chainId": "0x66eee"
      },
      "additionalContracts": [],
      "isFixedGasLimit": false
    },
    {
      "hash": "0x17f1d6c165c49b5ff9b8256a252dda99bb1585715f9af7a7dc2b876314e355ae",
      "transactionType": "CALL",
      "contractName": "ChainlinkOracleAdapter",
      "contractAddress": "0x991eb2241b5f2875a5cb4dbba6450b343e8216be",
      "function": "setFeed(address,address)",
      "arguments": [
        "0x0000000000000000000000000000000000000001",
        "0x639Fe6ab55C921f74e7fac1ee960C0B6293ba612"
      ],
      "transaction": {
        "from": "0x28482b1279e442f49ee76351801232d58f341cb9",
        "to": "0x991eb2241b5f2875a5cb4dbba6450b343e8216be",
        "gas": "0x6eef",
        "value": "0x0",
        "input": "0x40b1eb100000000000000000000000000000000000000000000000000000000000000001000000000000000000000000639fe6ab55c921f74e7fac1ee960c0b6293ba612",
        "nonce": "0x25",
        "chainId": "0x66eee"
      },
      "additionalContracts": [],
      "isFixedGasLimit": false
    }
  ],
  "receipts": [
    {
      "status": "0x1",
      "cumulativeGasUsed": "0x48e1e",
      "logs": [],
      "logsBloom": "0x00000000000000000000000000000000000000000000000000000000000000000000000000000000000000000000000000000000000000000000000000000000000000000000000000000000000000000000000000000000000000000000000000000000000000000000000000000000000000000000000000000000000000000000000000000000000000000000000000000000000000000000000000000000000000000000000000000000000000000000000000000000000000000000000000000000000000000000000000000000000000000000000000000000000000000000000000000000000000000000000000000000000000000000000000000000",
      "type": "0x2",
      "transactionHash": "0x468b27d7d111492b1e6ece5788df78e1b8f4fd5e50327e36348a7ff466046a83",
      "transactionIndex": "0x2",
      "blockHash": "0xfd010e5d224d2964ee22d4fbf643282a37c8ba9b1762f2496d119bfbf9b5b17f",
      "blockNumber": "0xe8778ef",
      "gasUsed": "0x42805",
      "effectiveGasPrice": "0x1314470",
      "from": "0x28482b1279e442f49ee76351801232d58f341cb9",
      "to": null,
      "contractAddress": "0x991eb2241b5f2875a5cb4dbba6450b343e8216be",
      "gasUsedForL1": "0x1b4",
      "l1BlockNumber": "0x9d02ad",
      "timeboosted": false
    },
    {
      "status": "0x1",
      "cumulativeGasUsed": "0xb1eb",
      "logs": [
        {
          "address": "0x991eb2241b5f2875a5cb4dbba6450b343e8216be",
          "topics": [
            "0x3206e79c8cb385b303820bc579358c388d2f7539de2fa2f24644faf6bd0354d1",
            "0x0000000000000000000000000000000000000000000000000000000000000001"
          ],
          "data": "0x000000000000000000000000639fe6ab55c921f74e7fac1ee960c0b6293ba612",
          "blockHash": "0x4573ffe17f912a2a4ab187962819057fc857707b9727c16b76b4470fccf89d8d",
          "blockNumber": "0xe8778f4",
          "blockTimestamp": "0x699676de",
          "transactionHash": "0x17f1d6c165c49b5ff9b8256a252dda99bb1585715f9af7a7dc2b876314e355ae",
          "transactionIndex": "0x1",
          "logIndex": "0x0",
          "removed": false
        }
      ],
      "logsBloom": "0x00000000000000000000200000000000000000000000000000000000000000000000000000000000000000000000000000000000000000200000000040040000000000000000000000000000000000000000000000040000000000800000000000000000000000000000000000000000000000000000000001000000000000000000000000000000000000000000000000000000000000000000000000000000000000000000000000000000000000000000000000000000000000000000000000000000000000000000000000000000000000000002000000000000000040000000000000000000000000000000000000000000000000000000000000000000",
      "type": "0x2",
      "transactionHash": "0x17f1d6c165c49b5ff9b8256a252dda99bb1585715f9af7a7dc2b876314e355ae",
      "transactionIndex": "0x1",
      "blockHash": "0x4573ffe17f912a2a4ab187962819057fc857707b9727c16b76b4470fccf89d8d",
      "blockNumber": "0xe8778f4",
      "gasUsed": "0xb1eb",
      "effectiveGasPrice": "0x13163b0",
      "from": "0x28482b1279e442f49ee76351801232d58f341cb9",
      "to": "0x991eb2241b5f2875a5cb4dbba6450b343e8216be",
      "contractAddress": null,
      "gasUsedForL1": "0x56",
      "l1BlockNumber": "0x9d02ad",
      "timeboosted": false
    }
  ],
  "libraries": [],
  "pending": [],
  "returns": {},
  "timestamp": 1771468515543,
  "chain": 421614,
  "commit": "87400b1"
}