{
  "transactions": [
    {
      "hash": "0x3bba6bd3481cb67ce0b6ae5afda7d61eab8893a2afd1888eb939faba38ed0a08",
      "transactionType": "CALL",
      "contractName": null,
      "contractAddress": "0x3c604069c87256bbab9cc3ff678410275b156755",
      "function": "approve(address,uint256)",
      "arguments": [
        "0x000000000022D473030F116dDEE9F6B43aC78BA3",
        "115792089237316195423570985008687907853269984665640564039457584007913129639935"
      ],
      "transaction": {
        "from": "0x28482b1279e442f49ee76351801232d58f341cb9",
        "to": "0x3c604069c87256bbab9cc3ff678410275b156755",
        "gas": "0x873d",
        "value": "0x0",
        "input": "0x095ea7b3000000000000000000000000000000000022d473030f116ddee9f6b43ac78ba3ffffffffffffffffffffffffffffffffffffffffffffffffffffffffffffffff",
        "nonce": "0xe1",
        "chainId": "0x66eee"
      },
      "additionalContracts": [],
      "isFixedGasLimit": false
    },
    {
      "hash": "0xc03b248b550089fee391859066d6bd7de1e0905fed981fafacfc442532bef30c",
      "transactionType": "CALL",
      "contractName": null,
      "contractAddress": "0x3cbe896e5e4093d6bf8dc0dc7a44c50552c0651e",
      "function": "approve(address,uint256)",
      "arguments": [
        "0x000000000022D473030F116dDEE9F6B43aC78BA3",
        "115792089237316195423570985008687907853269984665640564039457584007913129639935"
      ],
      "transaction": {
        "from": "0x28482b1279e442f49ee76351801232d58f341cb9",
        "to": "0x3cbe896e5e4093d6bf8dc0dc7a44c50552c0651e",
        "gas": "0x873d",
        "value": "0x0",
        "input": "0x095ea7b3000000000000000000000000000000000022d473030f116ddee9f6b43ac78ba3ffffffffffffffffffffffffffffffffffffffffffffffffffffffffffffffff",
        "nonce": "0xe2",
        "chainId": "0x66eee"
      },
      "additionalContracts": [],
      "isFixedGasLimit": false
    },
    {
      "hash": "0x7364bf3d0c2e9f3959831e34cd8152e74aecfa4575facfd85882dbe6c6970670",
      "transactionType": "CALL",
      "contractName": null,
      "contractAddress": "0x000000000022d473030f116ddee9f6b43ac78ba3",
      "function": "approve(address,address,uint160,uint48)",
      "arguments": [
        "0x3c604069c87256BBab9CC3fF678410275B156755",
        "0xAc631556d3d4019C95769033B5E719dD77124BAc",
        "1461501637330902918203684832716283019655932542975",
        "281474976710655"
      ],
      "transaction": {
        "from": "0x28482b1279e442f49ee76351801232d58f341cb9",
        "to": "0x000000000022d473030f116ddee9f6b43ac78ba3",
        "gas": "0x8f87",
        "value": "0x0",
        "input": "0x87517c450000000000000000000000003c604069c87256bbab9cc3ff678410275b156755000000000000000000000000ac631556d3d4019c95769033b5e719dd77124bac000000000000000000000000ffffffffffffffffffffffffffffffffffffffff0000000000000000000000000000000000000000000000000000ffffffffffff",
        "nonce": "0xe3",
        "chainId": "0x66eee"
      },
      "additionalContracts": [],
      "isFixedGasLimit": false
    },
    {
      "hash": "0xaa42f239f0693d7548af53d2d5bec4bbe3a2a4d030a37d69ba25d24e16eafedd",
      "transactionType": "CALL",
      "contractName": null,
      "contractAddress": "0x000000000022d473030f116ddee9f6b43ac78ba3",
      "function": "approve(address,address,uint160,uint48)",
      "arguments": [
        "0x3CBe896e5E4093d6BF8Dc0DC7a44C50552c0651E",
        "0xAc631556d3d4019C95769033B5E719dD77124BAc",
        "1461501637330902918203684832716283019655932542975",
        "281474976710655"
      ],
      "transaction": {
        "from": "0x28482b1279e442f49ee76351801232d58f341cb9",
        "to": "0x000000000022d473030f116ddee9f6b43ac78ba3",
        "gas": "0x8f87",
        "value": "0x0",
        "input": "0x87517c450000000000000000000000003cbe896e5e4093d6bf8dc0dc7a44c50552c0651e000000000000000000000000ac631556d3d4019c95769033b5e719dd77124bac000000000000000000000000ffffffffffffffffffffffffffffffffffffffff0000000000000000000000000000000000000000000000000000ffffffffffff",
        "nonce": "0xe4",
        "chainId": "0x66eee"
      },
      "additionalContracts": [],
      "isFixedGasLimit": false
    },
    {
      "hash": "0x6d773865cf866785f03dc192099ddb6e3fe1ac97de49897d680ab9e5f9a3a852",
      "transactionType": "CALL",
      "contractName": null,
      "contractAddress": "0xac631556d3d4019c95769033b5e719dd77124bac",
      "function": "modifyLiquidities(bytes,uint256)",
      "arguments": [
        "0x0000000000000000000000000000000000000000000000000000000000000040000000000000000000000000000000000000000000000000000000000000008000000000000000000000000000000000000000000000000000000000000000030212120000000000000000000000000000000000000000000000000000000000000000000000000000000000000000000000000000000000000000000000000300000000000000000000000000000000000000000000000000000000000000600000000000000000000000000000000000000000000000000000000000000220000000000000000000000000000000000000000000000000000000000000026000000000000000000000000000000000000000000000000000000000000001a00000000000000000000000003c604069c87256bbab9cc3ff678410275b1567550000000000000000000000003cbe896e5e4093d6bf8dc0dc7a44c50552c0651e0000000000000000000000000000000000000000000000000000000000000bb8000000000000000000000000000000000000000000000000000000000000003c000000000000000000000000e3ea87fb759c3206a9595048732eb6a6000700c4ffffffffffffffffffffffffffffffffffffffffffffffffffffffffffffffc4000000000000000000000000000000000000000000000000000000000000003c00000000000000000000000000000000000000000000000000000000c6fd81610000000000000000000000000000000000000000000000008d8dadf544fc0000000000000000000000000000000000000000000000000000000000000098968000000000000000000000000028482b1279e442f49ee76351801232d58f341cb90000000000000000000000000000000000000000000000000000000000000180000000000000000000000000000000000000000000000000000000000000000000000000000000000000000000000000000000000000000000000000000000200000000000000000000000003c604069c87256bbab9cc3ff678410275b15675500000000000000000000000000000000000000000000000000000000000000200000000000000000000000003cbe896e5e4093d6bf8dc0dc7a44c50552c0651e",
        "1771634205"
      ],
      "transaction": {
        "from": "0x28482b1279e442f49ee76351801232d58f341cb9",
        "to": "0xac631556d3d4019c95769033b5e719dd77124bac",
        "gas": "0x447c7",
        "value": "0x0",
        "input": "0xdd46508f0000000000000000000000000000000000000000000000000000000000000040000000000000000000000000000000000000000000000000000000006998fe1d00000000000000000000000000000000000000000000000000000000000003400000000000000000000000000000000000000000000000000000000000000040000000000000000000000000000000000000000000000000000000000000008000000000000000000000000000000000000000000000000000000000000000030212120000000000000000000000000000000000000000000000000000000000000000000000000000000000000000000000000000000000000000000000000300000000000000000000000000000000000000000000000000000000000000600000000000000000000000000000000000000000000000000000000000000220000000000000000000000000000000000000000000000000000000000000026000000000000000000000000000000000000000000000000000000000000001a00000000000000000000000003c604069c87256bbab9cc3ff678410275b1567550000000000000000000000003cbe896e5e4093d6bf8dc0dc7a44c50552c0651e0000000000000000000000000000000000000000000000000000000000000bb8000000000000000000000000000000000000000000000000000000000000003c000000000000000000000000e3ea87fb759c3206a9595048732eb6a6000700c4ffffffffffffffffffffffffffffffffffffffffffffffffffffffffffffffc4000000000000000000000000000000000000000000000000000000000000003c00000000000000000000000000000000000000000000000000000000c6fd81610000000000000000000000000000000000000000000000008d8dadf544fc0000000000000000000000000000000000000000000000000000000000000098968000000000000000000000000028482b1279e442f49ee76351801232d58f341cb90000000000000000000000000000000000000000000000000000000000000180000000000000000000000000000000000000000000000000000000000000000000000000000000000000000000000000000000000000000000000000000000200000000000000000000000003c604069c87256bbab9cc3ff678410275b15675500000000000000000000000000000000000000000000000000000000000000200000000000000000000000003cbe896e5e4093d6bf8dc0dc7a44c50552c0651e",
        "nonce": "0xe5",
        "chainId": "0x66eee"
      },
      "additionalContracts": [],
      "isFixedGasLimit": false
    }
  ],
  "receipts": [
    {
      "status": "0x1",
      "cumulativeGasUsed": "0x66b1",
      "logs": [
        {
          "address": "0x3c604069c87256bbab9cc3ff678410275b156755",
          "topics": [
            "0x8c5be1e5ebec7d5bd14f71427d1e84f3dd0314c0f7b2291e5b200ac8c7c3b925",
            "0x00000000000000000000000028482b1279e442f49ee76351801232d58f341cb9",
            "0x000000000000000000000000000000000022d473030f116ddee9f6b43ac78ba3"
          ],
          "data": "0xffffffffffffffffffffffffffffffffffffffffffffffffffffffffffffffff",
          "blockHash": "0x8dc329d7df1ae22889d7dafb5e6a05487b837a57a30c4b9c9bf621538ecbabdf",
          "blockNumber": "0xe8e30ed",
          "blockTimestamp": "0x6998fd04",
          "transactionHash": "0x3bba6bd3481cb67ce0b6ae5afda7d61eab8893a2afd1888eb939faba38ed0a08",
          "transactionIndex": "0x1",
          "logIndex": "0x0",
          "removed": false
        }
      ],
      "logsBloom": "0x00000000000000000000000000000002000000000000000000000000000000000000000000000000000000000000000000000000800000000000000000200000000000000000000000004000000000000000000000000800000000000000000000000000000000000000002000000000000000000000000000000000000000000000000000000000000000000000000000000000000000000000000000000000020000000000000000000000000000000000000000000000000000000000000800000000000000000000100000000000000000000000000000000000000000000010000000000000000000000000000000000000000000000000000000000800",
      "type": "0x2",
      "transactionHash": "0x3bba6bd3481cb67ce0b6ae5afda7d61eab8893a2afd1888eb939faba38ed0a08",
      "transactionIndex": "0x1",
      "blockHash": "0x8dc329d7df1ae22889d7dafb5e6a05487b837a57a30c4b9c9bf621538ecbabdf",
      "blockNumber": "0xe8e30ed",
      "gasUsed": "0x66b1",
      "effectiveGasPrice": "0x1312d00",
      "from": "0x28482b1279e442f49ee76351801232d58f341cb9",
      "to": "0x3c604069c87256bbab9cc3ff678410275b156755",
      "contractAddress": null,
      "gasUsedForL1": "0x0",
      "l1BlockNumber": "0x9d35cb",
      "timeboosted": false
    },
    {
      "status": "0x1",
      "cumulativeGasUsed": "0x66b1",
      "logs": [
        {
          "address": "0x3cbe896e5e4093d6bf8dc0dc7a44c50552c0651e",
          "topics": [
            "0x8c5be1e5ebec7d5bd14f71427d1e84f3dd0314c0f7b2291e5b200ac8c7c3b925",
            "0x00000000000000000000000028482b1279e442f49ee76351801232d58f341cb9",
            "0x000000000000000000000000000000000022d473030f116ddee9f6b43ac78ba3"
          ],
          "data": "0xffffffffffffffffffffffffffffffffffffffffffffffffffffffffffffffff",
          "blockHash": "0x3b27fcba6545367e175cf1f7ad3154f97967be965a0097e7eb71e41fdb16f1ff",
          "blockNumber": "0xe8e30fa",
          "blockTimestamp": "0x6998fd08",
          "transactionHash": "0xc03b248b550089fee391859066d6bd7de1e0905fed981fafacfc442532bef30c",
          "transactionIndex": "0x1",
          "logIndex": "0x0",
          "removed": false
        }
      ],
      "logsBloom": "0x00000000000000000000000000000002000000000000000000000000000000000000000000000000000000000000000000000000800000000000000000200000000000000000000000004004000000000000000000000800000000000000000000000000000000000000000000000000000000000000000000000000000000000000000000000000000000000000000000000000000000000000000000000000020000000000000000000000000000000000000000000000000000004000000000000000000000000000100000000000000000000000000000000000000000000010000000000000000000000000000000000000000000000000000000001000",
      "type": "0x2",
      "transactionHash": "0xc03b248b550089fee391859066d6bd7de1e0905fed981fafacfc442532bef30c",
      "transactionIndex": "0x1",
      "blockHash": "0x3b27fcba6545367e175cf1f7ad3154f97967be965a0097e7eb71e41fdb16f1ff",
      "blockNumber": "0xe8e30fa",
      "gasUsed": "0x66b1",
      "effectiveGasPrice": "0x1317b20",
      "from": "0x28482b1279e442f49ee76351801232d58f341cb9",
      "to": "0x3cbe896e5e4093d6bf8dc0dc7a44c50552c0651e",
      "contractAddress": null,
      "gasUsedForL1": "0x0",
      "l1BlockNumber": "0x9d35cc",
      "timeboosted": false
    },
    {
      "status": "0x1",
      "cumulativeGasUsed": "0x53156",
      "logs": [
        {
          "address": "0x000000000022d473030f116ddee9f6b43ac78ba3",
          "topics": [
            "0xda9fa7c1b00402c17d0161b249b1ab8bbec047c5a52207b9c112deffd817036b",
            "0x00000000000000000000000028482b1279e442f49ee76351801232d58f341cb9",
            "0x0000000000000000000000003c604069c87256bbab9cc3ff678410275b156755",
            "0x000000000000000000000000ac631556d3d4019c95769033b5e719dd77124bac"
          ],
          "data": "0x000000000000000000000000ffffffffffffffffffffffffffffffffffffffff0000000000000000000000000000000000000000000000000000ffffffffffff",
          "blockHash": "0x08cacb22a92a0de16c7dd4423b502f3eef964c66bc06c23a9305ecc5b7a6ff1d",
          "blockNumber": "0xe8e30ff",
          "blockTimestamp": "0x6998fd09",
          "transactionHash": "0x7364bf3d0c2e9f3959831e34cd8152e74aecfa4575facfd85882dbe6c6970670",
          "transactionIndex": "0x3",
          "logIndex": "0x8",
          "removed": false
        }
      ],
      "logsBloom": "0x00410000000000000000000000000002000000000000000000000000000000000000000000000000100000000000000000000000800000000000000000080000000020000020000000000000000000000000000000000000000000000000000000000000000000000000000000000000000000000000000000800000000000000020000000000000000000000000000000000000000000000000000000000000000000000000000000000000000000000000000000000000000000080000000000000000000000000000110000000000000000000000000040000000000000000000000000000000000000000000000000000000000000000000000000000400",
      "type": "0x2",
      "transactionHash": "0x7364bf3d0c2e9f3959831e34cd8152e74aecfa4575facfd85882dbe6c6970670",
      "transactionIndex": "0x3",
      "blockHash": "0x08cacb22a92a0de16c7dd4423b502f3eef964c66bc06c23a9305ecc5b7a6ff1d",
      "blockNumber": "0xe8e30ff",
      "gasUsed": "0x6d0e",
      "effectiveGasPrice": "0x1312d00",
      "from": "0x28482b1279e442f49ee76351801232d58f341cb9",
      "to": "0x000000000022d473030f116ddee9f6b43ac78ba3",
      "contractAddress": null,
      "gasUsedForL1": "0x0",
      "l1BlockNumber": "0x9d35cc",
      "timeboosted": false
    },
    {
      "status": "0x1",
      "cumulativeGasUsed": "0x6d0e",
      "logs": [
        {
          "address": "0x000000000022d473030f116ddee9f6b43ac78ba3",
          "topics": [
            "0xda9fa7c1b00402c17d0161b249b1ab8bbec047c5a52207b9c112deffd817036b",
            "0x00000000000000000000000028482b1279e442f49ee76351801232d58f341cb9",
            "0x0000000000000000000000003cbe896e5e4093d6bf8dc0dc7a44c50552c0651e",
            "0x000000000000000000000000ac631556d3d4019c95769033b5e719dd77124bac"
          ],
          "data": "0x000000000000000000000000ffffffffffffffffffffffffffffffffffffffff0000000000000000000000000000000000000000000000000000ffffffffffff",
          "blockHash": "0xe102742f194fcf46d05604c9835c3938c51bbe2dc7dcbacbff0b5e7fb6426785",
          "blockNumber": "0xe8e310c",
          "blockTimestamp": "0x6998fd0c",
          "transactionHash": "0xaa42f239f0693d7548af53d2d5bec4bbe3a2a4d030a37d69ba25d24e16eafedd",
          "transactionIndex": "0x1",
          "logIndex": "0x0",
          "removed": false
        }
      ],
      "logsBloom": "0x00010000000000000000000000000002000000000000000000000000000000000000200000002000100000000000000000000000800000000000000000080000000000000020000000000000000000000000000000000000000000000000000000000000000000000000000000000000000000000000000000000000000000000020000000000000000000000000000000000000002000000000000000000000000000000000000000000000000000000000000000000000000000080000000000000000000000000000110000000000000000000000000040000000000000000000000000000000000000000000000000000000000000000000000000000400",
      "type": "0x2",
      "transactionHash": "0xaa42f239f0693d7548af53d2d5bec4bbe3a2a4d030a37d69ba25d24e16eafedd",
      "transactionIndex": "0x1",
      "blockHash": "0xe102742f194fcf46d05604c9835c3938c51bbe2dc7dcbacbff0b5e7fb6426785",
      "blockNumber": "0xe8e310c",
      "gasUsed": "0x6d0e",
      "effectiveGasPrice": "0x1335f80",
      "from": "0x28482b1279e442f49ee76351801232d58f341cb9",
      "to": "0x000000000022d473030f116ddee9f6b43ac78ba3",
      "contractAddress": null,
      "gasUsedForL1": "0x0",
      "l1BlockNumber": "0x9d35cc",
      "timeboosted": false
    },
    {
      "status": "0x1",
      "cumulativeGasUsed": "0x334c1",
      "logs": [
        {
          "address": "0xac631556d3d4019c95769033b5e719dd77124bac",
          "topics": [
            "0xddf252ad1be2c89b69c2b068fc378daa952ba7f163c4a11628f55a4df523b3ef",
            "0x0000000000000000000000000000000000000000000000000000000000000000",
            "0x00000000000000000000000028482b1279e442f49ee76351801232d58f341cb9",
            "0x00000000000000000000000000000000000000000000000000000000000000e2"
          ],
          "data": "0x",
          "blockHash": "0xb39447e880722f11200a14f541fe4d12a6fb27a39e2828f73ba592dc501ac19f",
          "blockNumber": "0xe8e3112",
          "blockTimestamp": "0x6998fd0e",
          "transactionHash": "0x6d773865cf866785f03dc192099ddb6e3fe1ac97de49897d680ab9e5f9a3a852",
          "transactionIndex": "0x1",
          "logIndex": "0x0",
          "removed": false
        },
        {
          "address": "0xfb3e0c6f74eb1a21cc1da29aec80d2dfe6c9a317",
          "topics": [
            "0xf208f4912782fd25c7f114ca3723a2d5dd6f3bcc3ac8db5af63baa85f711d5ec",
            "0xa2f2ba1fe0f2cf08686544d42608e24526d01ccdb7f3f52ce74cb03c4aab09d2",
            "0x000000000000000000000000ac631556d3d4019c95769033b5e719dd77124bac"
          ],
          "data": "0xffffffffffffffffffffffffffffffffffffffffffffffffffffffffffffffc4000000000000000000000000000000000000000000000000000000000000003c00000000000000000000000000000000000000000000000000000000c6fd816100000000000000000000000000000000000000000000000000000000000000e2",
          "blockHash": "0xb39447e880722f11200a14f541fe4d12a6fb27a39e2828f73ba592dc501ac19f",
          "blockNumber": "0xe8e3112",
          "blockTimestamp": "0x6998fd0e",
          "transactionHash": "0x6d773865cf866785f03dc192099ddb6e3fe1ac97de49897d680ab9e5f9a3a852",
          "transactionIndex": "0x1",
          "logIndex": "0x1",
          "removed": false
        },
        {
          "address": "0x3c604069c87256bbab9cc3ff678410275b156755",
          "topics": [
            "0xddf252ad1be2c89b69c2b068fc378daa952ba7f163c4a11628f55a4df523b3ef",
            "0x00000000000000000000000028482b1279e442f49ee76351801232d58f341cb9",
            "0x000000000000000000000000fb3e0c6f74eb1a21cc1da29aec80d2dfe6c9a317"
          ],
          "data": "0x000000000000000000000000000000000000000000000000000000000131a25c",
          "blockHash": "0xb39447e880722f11200a14f541fe4d12a6fb27a39e2828f73ba592dc501ac19f",
          "blockNumber": "0xe8e3112",
          "blockTimestamp": "0x6998fd0e",
          "transactionHash": "0x6d773865cf866785f03dc192099ddb6e3fe1ac97de49897d680ab9e5f9a3a852",
          "transactionIndex": "0x1",
          "logIndex": "0x2",
          "removed": false
        }
      ],
      "logsBloom": "0x0000004000000000000000000000000a000000000020100000000000000000000000000000000000100000400100000000000000800000000000000000000040000000000020000004000008000000000200000000000000000000000000000000000000020400000000002000000800000000000000000000000010000000000000000001000000000000000000000000000000000000000000000000000000000004200000000000000000000000000000000000000000000000000000000800000002000000000000110000000000000000000000000000001000000020000000000040000000400000000000000004000000000000000000000000000804",
      "type": "0x2",
      "transactionHash": "0x6d773865cf866785f03dc192099ddb6e3fe1ac97de49897d680ab9e5f9a3a852",
      "transactionIndex": "0x1",
      "blockHash": "0xb39447e880722f11200a14f541fe4d12a6fb27a39e2828f73ba592dc501ac19f",
      "blockNumber": "0xe8e3112",
      "gasUsed": "0x334c1",
      "effectiveGasPrice": "0x13182f0",
      "from": "0x28482b1279e442f49ee76351801232d58f341cb9",
      "to": "0xac631556d3d4019c95769033b5e719dd77124bac",
      "contractAddress": null,
      "gasUsedForL1": "0x0",
      "l1BlockNumber": "0x9d35cc",
      "timeboosted": false
    }
  ],
  "libraries": [],
  "pending": [],
  "returns": {},
  "timestamp": 1771633934649,
  "chain": 421614,
  "commit": "cd573a3"
}