{
  "transactions": [
    {
      "hash": "0xe5943ceeddc706b967734b7ddb51c3b274bf15d4487769e9dce84f1133ead5dc",
      "transactionType": "CALL",
      "contractName": null,
      "contractAddress": "0x3c604069c87256bbab9cc3ff678410275b156755",
      "function": "approve(address,uint256)",
      "arguments": [
        "0x000000000022D473030F116dDEE9F6B43aC78BA3",
        "115792089237316195423570985008687907853269984665640564039457584007913129639935"
      ],
      "transaction": {
        "from": "0x28482b1279e442f49ee76351801232d58f341cb9",
        "to": "0x3c604069c87256bbab9cc3ff678410275b156755",
        "gas": "0x873d",
        "value": "0x0",
        "input": "0x095ea7b3000000000000000000000000000000000022d473030f116ddee9f6b43ac78ba3ffffffffffffffffffffffffffffffffffffffffffffffffffffffffffffffff",
        "nonce": "0xeb",
        "chainId": "0x66eee"
      },
      "additionalContracts": [],
      "isFixedGasLimit": false
    },
    {
      "hash": "0x348f763b4ce7dd59ffc587dd0feaed9d1427cd3ca56cab987d1d7ec7d433c6b6",
      "transactionType": "CALL",
      "contractName": null,
      "contractAddress": "0x3cbe896e5e4093d6bf8dc0dc7a44c50552c0651e",
      "function": "approve(address,uint256)",
      "arguments": [
        "0x000000000022D473030F116dDEE9F6B43aC78BA3",
        "115792089237316195423570985008687907853269984665640564039457584007913129639935"
      ],
      "transaction": {
        "from": "0x28482b1279e442f49ee76351801232d58f341cb9",
        "to": "0x3cbe896e5e4093d6bf8dc0dc7a44c50552c0651e",
        "gas": "0x873d",
        "value": "0x0",
        "input": "0x095ea7b3000000000000000000000000000000000022d473030f116ddee9f6b43ac78ba3ffffffffffffffffffffffffffffffffffffffffffffffffffffffffffffffff",
        "nonce": "0xec",
        "chainId": "0x66eee"
      },
      "additionalContracts": [],
      "isFixedGasLimit": false
    },
    {
      "hash": "0x0d2e39ec22289fb9af4dc406f8e836d07fcfdc58daea83bb2c98afdc070b0092",
      "transactionType": "CALL",
      "contractName": null,
      "contractAddress": "0x000000000022d473030f116ddee9f6b43ac78ba3",
      "function": "approve(address,address,uint160,uint48)",
      "arguments": [
        "0x3c604069c87256BBab9CC3fF678410275B156755",
        "0xAc631556d3d4019C95769033B5E719dD77124BAc",
        "1461501637330902918203684832716283019655932542975",
        "281474976710655"
      ],
      "transaction": {
        "from": "0x28482b1279e442f49ee76351801232d58f341cb9",
        "to": "0x000000000022d473030f116ddee9f6b43ac78ba3",
        "gas": "0x8f87",
        "value": "0x0",
        "input": "0x87517c450000000000000000000000003c604069c87256bbab9cc3ff678410275b156755000000000000000000000000ac631556d3d4019c95769033b5e719dd77124bac000000000000000000000000ffffffffffffffffffffffffffffffffffffffff0000000000000000000000000000000000000000000000000000ffffffffffff",
        "nonce": "0xed",
        "chainId": "0x66eee"
      },
      "additionalContracts": [],
      "isFixedGasLimit": false
    },
    {
      "hash": "0xc8def327b0e0c0c675a0e09ee8511edea9c3337532724206cc1e851fd079b2f8",
      "transactionType": "CALL",
      "contractName": null,
      "contractAddress": "0x000000000022d473030f116ddee9f6b43ac78ba3",
      "function": "approve(address,address,uint160,uint48)",
      "arguments": [
        "0x3CBe896e5E4093d6BF8Dc0DC7a44C50552c0651E",
        "0xAc631556d3d4019C95769033B5E719dD77124BAc",
        "1461501637330902918203684832716283019655932542975",
        "281474976710655"
      ],
      "transaction": {
        "from": "0x28482b1279e442f49ee76351801232d58f341cb9",
        "to": "0x000000000022d473030f116ddee9f6b43ac78ba3",
        "gas": "0x8f87",
        "value": "0x0",
        "input": "0x87517c450000000000000000000000003cbe896e5e4093d6bf8dc0dc7a44c50552c0651e000000000000000000000000ac631556d3d4019c95769033b5e719dd77124bac000000000000000000000000ffffffffffffffffffffffffffffffffffffffff0000000000000000000000000000000000000000000000000000ffffffffffff",
        "nonce": "0xee",
        "chainId": "0x66eee"
      },
      "additionalContracts": [],
      "isFixedGasLimit": false
    },
    {
      "hash": "0xd0acd70a0c821abc04dc784cb72d1476c60476fa5786637e9840e42bc1363fd1",
      "transactionType": "CALL",
      "contractName": null,
      "contractAddress": "0xac631556d3d4019c95769033b5e719dd77124bac",
      "function": "modifyLiquidities(bytes,uint256)",
      "arguments": [
        "0x0000000000000000000000000000000000000000000000000000000000000040000000000000000000000000000000000000000000000000000000000000008000000000000000000000000000000000000000000000000000000000000000030212120000000000000000000000000000000000000000000000000000000000000000000000000000000000000000000000000000000000000000000000000300000000000000000000000000000000000000000000000000000000000000600000000000000000000000000000000000000000000000000000000000000220000000000000000000000000000000000000000000000000000000000000026000000000000000000000000000000000000000000000000000000000000001a00000000000000000000000003c604069c87256bbab9cc3ff678410275b1567550000000000000000000000003cbe896e5e4093d6bf8dc0dc7a44c50552c0651e0000000000000000000000000000000000000000000000000000000000000bb8000000000000000000000000000000000000000000000000000000000000003c000000000000000000000000e3ea87fb759c3206a9595048732eb6a6000700c4ffffffffffffffffffffffffffffffffffffffffffffffffffffffffffffffc4000000000000000000000000000000000000000000000000000000000000003c00000000000000000000000000000000000000000000000000000000c6fd81610000000000000000000000000000000000000000000000008d8dadf544fc0000000000000000000000000000000000000000000000000000000000000098968000000000000000000000000028482b1279e442f49ee76351801232d58f341cb90000000000000000000000000000000000000000000000000000000000000180000000000000000000000000000000000000000000000000000000000000000000000000000000000000000000000000000000000000000000000000000000200000000000000000000000003c604069c87256bbab9cc3ff678410275b15675500000000000000000000000000000000000000000000000000000000000000200000000000000000000000003cbe896e5e4093d6bf8dc0dc7a44c50552c0651e",
        "1771635748"
      ],
      "transaction": {
        "from": "0x28482b1279e442f49ee76351801232d58f341cb9",
        "to": "0xac631556d3d4019c95769033b5e719dd77124bac",
        "gas": "0x447c7",
        "value": "0x0",
        "input": "0xdd46508f0000000000000000000000000000000000000000000000000000000000000040000000000000000000000000000000000000000000000000000000006999042400000000000000000000000000000000000000000000000000000000000003400000000000000000000000000000000000000000000000000000000000000040000000000000000000000000000000000000000000000000000000000000008000000000000000000000000000000000000000000000000000000000000000030212120000000000000000000000000000000000000000000000000000000000000000000000000000000000000000000000000000000000000000000000000300000000000000000000000000000000000000000000000000000000000000600000000000000000000000000000000000000000000000000000000000000220000000000000000000000000000000000000000000000000000000000000026000000000000000000000000000000000000000000000000000000000000001a00000000000000000000000003c604069c87256bbab9cc3ff678410275b1567550000000000000000000000003cbe896e5e4093d6bf8dc0dc7a44c50552c0651e0000000000000000000000000000000000000000000000000000000000000bb8000000000000000000000000000000000000000000000000000000000000003c000000000000000000000000e3ea87fb759c3206a9595048732eb6a6000700c4ffffffffffffffffffffffffffffffffffffffffffffffffffffffffffffffc4000000000000000000000000000000000000000000000000000000000000003c00000000000000000000000000000000000000000000000000000000c6fd81610000000000000000000000000000000000000000000000008d8dadf544fc0000000000000000000000000000000000000000000000000000000000000098968000000000000000000000000028482b1279e442f49ee76351801232d58f341cb90000000000000000000000000000000000000000000000000000000000000180000000000000000000000000000000000000000000000000000000000000000000000000000000000000000000000000000000000000000000000000000000200000000000000000000000003c604069c87256bbab9cc3ff678410275b15675500000000000000000000000000000000000000000000000000000000000000200000000000000000000000003cbe896e5e4093d6bf8dc0dc7a44c50552c0651e",
        "nonce": "0xef",
        "chainId": "0x66eee"
      },
      "additionalContracts": [],
      "isFixedGasLimit": false
    }
  ],
  "receipts": [
    {
      "status": "0x1",
      "cumulativeGasUsed": "0x66b1",
      "logs": [
        {
          "address": "0x3c604069c87256bbab9cc3ff678410275b156755",
          "topics": [
            "0x8c5be1e5ebec7d5bd14f71427d1e84f3dd0314c0f7b2291e5b200ac8c7c3b925",
            "0x00000000000000000000000028482b1279e442f49ee76351801232d58f341cb9",
            "0x000000000000000000000000000000000022d473030f116ddee9f6b43ac78ba3"
          ],
          "data": "0xffffffffffffffffffffffffffffffffffffffffffffffffffffffffffffffff",
          "blockHash": "0xa90324fbb5b988c3a877cf834bfc4ac9e453dca51710c589a3b28ed7ba9f90c7",
          "blockNumber": "0xe8e410f",
          "blockTimestamp": "0x6999030d",
          "transactionHash": "0xe5943ceeddc706b967734b7ddb51c3b274bf15d4487769e9dce84f1133ead5dc",
          "transactionIndex": "0x1",
          "logIndex": "0x0",
          "removed": false
        }
      ],
      "logsBloom": "0x00000000000000000000000000000002000000000000000000000000000000000000000000000000000000000000000000000000800000000000000000200000000000000000000000004000000000000000000000000800000000000000000000000000000000000000002000000000000000000000000000000000000000000000000000000000000000000000000000000000000000000000000000000000020000000000000000000000000000000000000000000000000000000000000800000000000000000000100000000000000000000000000000000000000000000010000000000000000000000000000000000000000000000000000000000800",
      "type": "0x2",
      "transactionHash": "0xe5943ceeddc706b967734b7ddb51c3b274bf15d4487769e9dce84f1133ead5dc",
      "transactionIndex": "0x1",
      "blockHash": "0xa90324fbb5b988c3a877cf834bfc4ac9e453dca51710c589a3b28ed7ba9f90c7",
      "blockNumber": "0xe8e410f",
      "gasUsed": "0x66b1",
      "effectiveGasPrice": "0x1312d00",
      "from": "0x28482b1279e442f49ee76351801232d58f341cb9",
      "to": "0x3c604069c87256bbab9cc3ff678410275b156755",
      "contractAddress": null,
      "gasUsedForL1": "0x0",
      "l1BlockNumber": "0x9d3649",
      "timeboosted": false
    },
    {
      "status": "0x1",
      "cumulativeGasUsed": "0x88a84",
      "logs": [
        {
          "address": "0x3cbe896e5e4093d6bf8dc0dc7a44c50552c0651e",
          "topics": [
            "0x8c5be1e5ebec7d5bd14f71427d1e84f3dd0314c0f7b2291e5b200ac8c7c3b925",
            "0x00000000000000000000000028482b1279e442f49ee76351801232d58f341cb9",
            "0x000000000000000000000000000000000022d473030f116ddee9f6b43ac78ba3"
          ],
          "data": "0xffffffffffffffffffffffffffffffffffffffffffffffffffffffffffffffff",
          "blockHash": "0xa6fd9a2340881e414e8c124c5a41a1ebfd417bfdbe6394090c8718019b75c013",
          "blockNumber": "0xe8e411b",
          "blockTimestamp": "0x69990310",
          "transactionHash": "0x348f763b4ce7dd59ffc587dd0feaed9d1427cd3ca56cab987d1d7ec7d433c6b6",
          "transactionIndex": "0x3",
          "logIndex": "0x16",
          "removed": false
        }
      ],
      "logsBloom": "0x00000000000000000000000000000002000000000000000000000000000000000000000000000000000000000000000000000000800000000000000000200000000000000000000000004004000000000000000000000800000000000000000000000000000000000000000000000000000000000000000000000000000000000000000000000000000000000000000000000000000000000000000000000000020000000000000000000000000000000000000000000000000000004000000000000000000000000000100000000000000000000000000000000000000000000010000000000000000000000000000000000000000000000000000000001000",
      "type": "0x2",
      "transactionHash": "0x348f763b4ce7dd59ffc587dd0feaed9d1427cd3ca56cab987d1d7ec7d433c6b6",
      "transactionIndex": "0x3",
      "blockHash": "0xa6fd9a2340881e414e8c124c5a41a1ebfd417bfdbe6394090c8718019b75c013",
      "blockNumber": "0xe8e411b",
      "gasUsed": "0x66b1",
      "effectiveGasPrice": "0x131c940",
      "from": "0x28482b1279e442f49ee76351801232d58f341cb9",
      "to": "0x3cbe896e5e4093d6bf8dc0dc7a44c50552c0651e",
      "contractAddress": null,
      "gasUsedForL1": "0x0",
      "l1BlockNumber": "0x9d364b",
      "timeboosted": false
    },
    {
      "status": "0x1",
      "cumulativeGasUsed": "0x6d0e",
      "logs": [
        {
          "address": "0x000000000022d473030f116ddee9f6b43ac78ba3",
          "topics": [
            "0xda9fa7c1b00402c17d0161b249b1ab8bbec047c5a52207b9c112deffd817036b",
            "0x00000000000000000000000028482b1279e442f49ee76351801232d58f341cb9",
            "0x0000000000000000000000003c604069c87256bbab9cc3ff678410275b156755",
            "0x000000000000000000000000ac631556d3d4019c95769033b5e719dd77124bac"
          ],
          "data": "0x000000000000000000000000ffffffffffffffffffffffffffffffffffffffff0000000000000000000000000000000000000000000000000000ffffffffffff",
          "blockHash": "0xc6865551f975d28ce376da5d7c3736b6a7daf305df1289197a2ba8587db7a65c",
          "blockNumber": "0xe8e4123",
          "blockTimestamp": "0x69990314",
          "transactionHash": "0x0d2e39ec22289fb9af4dc406f8e836d07fcfdc58daea83bb2c98afdc070b0092",
          "transactionIndex": "0x1",
          "logIndex": "0x0",
          "removed": false
        }
      ],
      "logsBloom": "0x00410000000000000000000000000002000000000000000000000000000000000000000000000000100000000000000000000000800000000000000000080000000020000020000000000000000000000000000000000000000000000000000000000000000000000000000000000000000000000000000000800000000000000020000000000000000000000000000000000000000000000000000000000000000000000000000000000000000000000000000000000000000000080000000000000000000000000000110000000000000000000000000040000000000000000000000000000000000000000000000000000000000000000000000000000400",
      "type": "0x2",
      "transactionHash": "0x0d2e39ec22289fb9af4dc406f8e836d07fcfdc58daea83bb2c98afdc070b0092",
      "transactionIndex": "0x1",
      "blockHash": "0xc6865551f975d28ce376da5d7c3736b6a7daf305df1289197a2ba8587db7a65c",
      "blockNumber": "0xe8e4123",
      "gasUsed": "0x6d0e",
      "effectiveGasPrice": "0x1313ca0",
      "from": "0x28482b1279e442f49ee76351801232d58f341cb9",
      "to": "0x000000000022d473030f116ddee9f6b43ac78ba3",
      "contractAddress": null,
      "gasUsedForL1": "0x0",
      "l1BlockNumber": "0x9d364b",
      "timeboosted": false
    },
    {
      "status": "0x1",
      "cumulativeGasUsed": "0x6d0e",
      "logs": [
        {
          "address": "0x000000000022d473030f116ddee9f6b43ac78ba3",
          "topics": [
            "0xda9fa7c1b00402c17d0161b249b1ab8bbec047c5a52207b9c112deffd817036b",
            "0x00000000000000000000000028482b1279e442f49ee76351801232d58f341cb9",
            "0x0000000000000000000000003cbe896e5e4093d6bf8dc0dc7a44c50552c0651e",
            "0x000000000000000000000000ac631556d3d4019c95769033b5e719dd77124bac"
          ],
          "data": "0x000000000000000000000000ffffffffffffffffffffffffffffffffffffffff0000000000000000000000000000000000000000000000000000ffffffffffff",
          "blockHash": "0x3327bab2912707b986aa5ffe7db7e982baf04db6f59fd1f9b66859d60d7b6db1",
          "blockNumber": "0xe8e4125",
          "blockTimestamp": "0x69990315",
          "transactionHash": "0xc8def327b0e0c0c675a0e09ee8511edea9c3337532724206cc1e851fd079b2f8",
          "transactionIndex": "0x1",
          "logIndex": "0x0",
          "removed": false
        }
      ],
      "logsBloom": "0x00010000000000000000000000000002000000000000000000000000000000000000200000002000100000000000000000000000800000000000000000080000000000000020000000000000000000000000000000000000000000000000000000000000000000000000000000000000000000000000000000000000000000000020000000000000000000000000000000000000002000000000000000000000000000000000000000000000000000000000000000000000000000080000000000000000000000000000110000000000000000000000000040000000000000000000000000000000000000000000000000000000000000000000000000000400",
      "type": "0x2",
      "transactionHash": "0xc8def327b0e0c0c675a0e09ee8511edea9c3337532724206cc1e851fd079b2f8",
      "transactionIndex": "0x1",
      "blockHash": "0x3327bab2912707b986aa5ffe7db7e982baf04db6f59fd1f9b66859d60d7b6db1",
      "blockNumber": "0xe8e4125",
      "gasUsed": "0x6d0e",
      "effectiveGasPrice": "0x1312d00",
      "from": "0x28482b1279e442f49ee76351801232d58f341cb9",
      "to": "0x000000000022d473030f116ddee9f6b43ac78ba3",
      "contractAddress": null,
      "gasUsedForL1": "0x0",
      "l1BlockNumber": "0x9d364b",
      "timeboosted": false
    },
    {
      "status": "0x1",
      "cumulativeGasUsed": "0x334c1",
      "logs": [
        {
          "address": "0xac631556d3d4019c95769033b5e719dd77124bac",
          "topics": [
            "0xddf252ad1be2c89b69c2b068fc378daa952ba7f163c4a11628f55a4df523b3ef",
            "0x0000000000000000000000000000000000000000000000000000000000000000",
            "0x00000000000000000000000028482b1279e442f49ee76351801232d58f341cb9",
            "0x00000000000000000000000000000000000000000000000000000000000000e4"
          ],
          "data": "0x",
          "blockHash": "0xba5d210054f299deeacdd2b9dbe15e02f511c8d1c20a61076ad50446342549ff",
          "blockNumber": "0xe8e4130",
          "blockTimestamp": "0x69990318",
          "transactionHash": "0xd0acd70a0c821abc04dc784cb72d1476c60476fa5786637e9840e42bc1363fd1",
          "transactionIndex": "0x1",
          "logIndex": "0x0",
          "removed": false
        },
        {
          "address": "0xfb3e0c6f74eb1a21cc1da29aec80d2dfe6c9a317",
          "topics": [
            "0xf208f4912782fd25c7f114ca3723a2d5dd6f3bcc3ac8db5af63baa85f711d5ec",
            "0xa2f2ba1fe0f2cf08686544d42608e24526d01ccdb7f3f52ce74cb03c4aab09d2",
            "0x000000000000000000000000ac631556d3d4019c95769033b5e719dd77124bac"
          ],
          "data": "0xffffffffffffffffffffffffffffffffffffffffffffffffffffffffffffffc4000000000000000000000000000000000000000000000000000000000000003c00000000000000000000000000000000000000000000000000000000c6fd816100000000000000000000000000000000000000000000000000000000000000e4",
          "blockHash": "0xba5d210054f299deeacdd2b9dbe15e02f511c8d1c20a61076ad50446342549ff",
          "blockNumber": "0xe8e4130",
          "blockTimestamp": "0x69990318",
          "transactionHash": "0xd0acd70a0c821abc04dc784cb72d1476c60476fa5786637e9840e42bc1363fd1",
          "transactionIndex": "0x1",
          "logIndex": "0x1",
          "removed": false
        },
        {
          "address": "0x3c604069c87256bbab9cc3ff678410275b156755",
          "topics": [
            "0xddf252ad1be2c89b69c2b068fc378daa952ba7f163c4a11628f55a4df523b3ef",
            "0x00000000000000000000000028482b1279e442f49ee76351801232d58f341cb9",
            "0x000000000000000000000000fb3e0c6f74eb1a21cc1da29aec80d2dfe6c9a317"
          ],
          "data": "0x000000000000000000000000000000000000000000000000000000000131a25c",
          "blockHash": "0xba5d210054f299deeacdd2b9dbe15e02f511c8d1c20a61076ad50446342549ff",
          "blockNumber": "0xe8e4130",
          "blockTimestamp": "0x69990318",
          "transactionHash": "0xd0acd70a0c821abc04dc784cb72d1476c60476fa5786637e9840e42bc1363fd1",
          "transactionIndex": "0x1",
          "logIndex": "0x2",
          "removed": false
        }
      ],
      "logsBloom": "0x0000004000000000000000000000000a000000000020100000000000000000000000000000000000100000000100000000000000800000000000000000000040000000000020000004000008000000000000000000000000000000000000000000000010020400000000002000000800000000000000000000000010000000000000000001000000000000000000000000000000000000000000000000000000000004200000000000000000000000000000000000000000000000000000000800000002000000000000110000000000000000000000000000040000000020000000000040000000480000000000000004000000000000000000000000000804",
      "type": "0x2",
      "transactionHash": "0xd0acd70a0c821abc04dc784cb72d1476c60476fa5786637e9840e42bc1363fd1",
      "transactionIndex": "0x1",
      "blockHash": "0xba5d210054f299deeacdd2b9dbe15e02f511c8d1c20a61076ad50446342549ff",
      "blockNumber": "0xe8e4130",
      "gasUsed": "0x334c1",
      "effectiveGasPrice": "0x1315be0",
      "from": "0x28482b1279e442f49ee76351801232d58f341cb9",
      "to": "0xac631556d3d4019c95769033b5e719dd77124bac",
      "contractAddress": null,
      "gasUsedForL1": "0x0",
      "l1BlockNumber": "0x9d364b",
      "timeboosted": false
    }
  ],
  "libraries": [],
  "pending": [],
  "returns": {},
  "timestamp": 1771635483217,
  "chain": 421614,
  "commit": "cd573a3"
}