{
  "transactions": [
    {
      "hash": "0x5aecd7ffa84024aee08f30d475801d3a605afdc4e4440dff0d1d4a3f3fc444a2",
      "transactionType": "CALL",
      "contractName": null,
      "contractAddress": "0x3c604069c87256bbab9cc3ff678410275b156755",
      "function": "approve(address,uint256)",
      "arguments": [
        "0x000000000022D473030F116dDEE9F6B43aC78BA3",
        "115792089237316195423570985008687907853269984665640564039457584007913129639935"
      ],
      "transaction": {
        "from": "0x28482b1279e442f49ee76351801232d58f341cb9",
        "to": "0x3c604069c87256bbab9cc3ff678410275b156755",
        "gas": "0x873d",
        "value": "0x0",
        "input": "0x095ea7b3000000000000000000000000000000000022d473030f116ddee9f6b43ac78ba3ffffffffffffffffffffffffffffffffffffffffffffffffffffffffffffffff",
        "nonce": "0xfb",
        "chainId": "0x66eee"
      },
      "additionalContracts": [],
      "isFixedGasLimit": false
    },
    {
      "hash": "0x2161c384f6bd79f95229554d2ee82242aad9e9c591858dcabcf5ecd24597da65",
      "transactionType": "CALL",
      "contractName": null,
      "contractAddress": "0x3cbe896e5e4093d6bf8dc0dc7a44c50552c0651e",
      "function": "approve(address,uint256)",
      "arguments": [
        "0x000000000022D473030F116dDEE9F6B43aC78BA3",
        "115792089237316195423570985008687907853269984665640564039457584007913129639935"
      ],
      "transaction": {
        "from": "0x28482b1279e442f49ee76351801232d58f341cb9",
        "to": "0x3cbe896e5e4093d6bf8dc0dc7a44c50552c0651e",
        "gas": "0x873d",
        "value": "0x0",
        "input": "0x095ea7b3000000000000000000000000000000000022d473030f116ddee9f6b43ac78ba3ffffffffffffffffffffffffffffffffffffffffffffffffffffffffffffffff",
        "nonce": "0xfc",
        "chainId": "0x66eee"
      },
      "additionalContracts": [],
      "isFixedGasLimit": false
    },
    {
      "hash": "0x8f18fae10eb5e159bc73ba6efe8d81fad18d1209a49daa16870001ef64079237",
      "transactionType": "CALL",
      "contractName": null,
      "contractAddress": "0x000000000022d473030f116ddee9f6b43ac78ba3",
      "function": "approve(address,address,uint160,uint48)",
      "arguments": [
        "0x3c604069c87256BBab9CC3fF678410275B156755",
        "0xAc631556d3d4019C95769033B5E719dD77124BAc",
        "1461501637330902918203684832716283019655932542975",
        "281474976710655"
      ],
      "transaction": {
        "from": "0x28482b1279e442f49ee76351801232d58f341cb9",
        "to": "0x000000000022d473030f116ddee9f6b43ac78ba3",
        "gas": "0x8f87",
        "value": "0x0",
        "input": "0x87517c450000000000000000000000003c604069c87256bbab9cc3ff678410275b156755000000000000000000000000ac631556d3d4019c95769033b5e719dd77124bac000000000000000000000000ffffffffffffffffffffffffffffffffffffffff0000000000000000000000000000000000000000000000000000ffffffffffff",
        "nonce": "0xfd",
        "chainId": "0x66eee"
      },
      "additionalContracts": [],
      "isFixedGasLimit": false
    },
    {
      "hash": "0xf564eb9f5d04aeec69b0c630c117443d963f2a637396cef160d5a073aff7ae06",
      "transactionType": "CALL",
      "contractName": null,
      "contractAddress": "0x000000000022d473030f116ddee9f6b43ac78ba3",
      "function": "approve(address,address,uint160,uint48)",
      "arguments": [
        "0x3CBe896e5E4093d6BF8Dc0DC7a44C50552c0651E",
        "0xAc631556d3d4019C95769033B5E719dD77124BAc",
        "1461501637330902918203684832716283019655932542975",
        "281474976710655"
      ],
      "transaction": {
        "from": "0x28482b1279e442f49ee76351801232d58f341cb9",
        "to": "0x000000000022d473030f116ddee9f6b43ac78ba3",
        "gas": "0x8f87",
        "value": "0x0",
        "input": "0x87517c450000000000000000000000003cbe896e5e4093d6bf8dc0dc7a44c50552c0651e000000000000000000000000ac631556d3d4019c95769033b5e719dd77124bac000000000000000000000000ffffffffffffffffffffffffffffffffffffffff0000000000000000000000000000000000000000000000000000ffffffffffff",
        "nonce": "0xfe",
        "chainId": "0x66eee"
      },
      "additionalContracts": [],
      "isFixedGasLimit": false
    },
    {
      "hash": "0xb86ed40013d2382e89cd14cd671b8a05cf161a9c1220738425ad46fbbf8fdfaa",
      "transactionType": "CALL",
      "contractName": null,
      "contractAddress": "0xac631556d3d4019c95769033b5e719dd77124bac",
      "function": "modifyLiquidities(bytes,uint256)",
      "arguments": [
        "0x0000000000000000000000000000000000000000000000000000000000000040000000000000000000000000000000000000000000000000000000000000008000000000000000000000000000000000000000000000000000000000000000030212120000000000000000000000000000000000000000000000000000000000000000000000000000000000000000000000000000000000000000000000000300000000000000000000000000000000000000000000000000000000000000600000000000000000000000000000000000000000000000000000000000000220000000000000000000000000000000000000000000000000000000000000026000000000000000000000000000000000000000000000000000000000000001a00000000000000000000000003c604069c87256bbab9cc3ff678410275b1567550000000000000000000000003cbe896e5e4093d6bf8dc0dc7a44c50552c0651e0000000000000000000000000000000000000000000000000000000000000bb8000000000000000000000000000000000000000000000000000000000000003c000000000000000000000000e3ea87fb759c3206a9595048732eb6a6000700c4fffffffffffffffffffffffffffffffffffffffffffffffffffffffffffebaecfffffffffffffffffffffffffffffffffffffffffffffffffffffffffffebb640000000000000000000000000000000000000000000000000000004e230790f90000000000000000000000000000000000000000000000008d8dadf544fc0000000000000000000000000000000000000000000000000000000000000098968000000000000000000000000028482b1279e442f49ee76351801232d58f341cb90000000000000000000000000000000000000000000000000000000000000180000000000000000000000000000000000000000000000000000000000000000000000000000000000000000000000000000000000000000000000000000000200000000000000000000000003c604069c87256bbab9cc3ff678410275b15675500000000000000000000000000000000000000000000000000000000000000200000000000000000000000003cbe896e5e4093d6bf8dc0dc7a44c50552c0651e",
        "1771677790"
      ],
      "transaction": {
        "from": "0x28482b1279e442f49ee76351801232d58f341cb9",
        "to": "0xac631556d3d4019c95769033b5e719dd77124bac",
        "gas": "0x69bce",
        "value": "0x0",
        "input": "0xdd46508f0000000000000000000000000000000000000000000000000000000000000040000000000000000000000000000000000000000000000000000000006999a85e00000000000000000000000000000000000000000000000000000000000003400000000000000000000000000000000000000000000000000000000000000040000000000000000000000000000000000000000000000000000000000000008000000000000000000000000000000000000000000000000000000000000000030212120000000000000000000000000000000000000000000000000000000000000000000000000000000000000000000000000000000000000000000000000300000000000000000000000000000000000000000000000000000000000000600000000000000000000000000000000000000000000000000000000000000220000000000000000000000000000000000000000000000000000000000000026000000000000000000000000000000000000000000000000000000000000001a00000000000000000000000003c604069c87256bbab9cc3ff678410275b1567550000000000000000000000003cbe896e5e4093d6bf8dc0dc7a44c50552c0651e0000000000000000000000000000000000000000000000000000000000000bb8000000000000000000000000000000000000000000000000000000000000003c000000000000000000000000e3ea87fb759c3206a9595048732eb6a6000700c4fffffffffffffffffffffffffffffffffffffffffffffffffffffffffffebaecfffffffffffffffffffffffffffffffffffffffffffffffffffffffffffebb640000000000000000000000000000000000000000000000000000004e230790f90000000000000000000000000000000000000000000000008d8dadf544fc0000000000000000000000000000000000000000000000000000000000000098968000000000000000000000000028482b1279e442f49ee76351801232d58f341cb90000000000000000000000000000000000000000000000000000000000000180000000000000000000000000000000000000000000000000000000000000000000000000000000000000000000000000000000000000000000000000000000200000000000000000000000003c604069c87256bbab9cc3ff678410275b15675500000000000000000000000000000000000000000000000000000000000000200000000000000000000000003cbe896e5e4093d6bf8dc0dc7a44c50552c0651e",
        "nonce": "0xff",
        "chainId": "0x66eee"
      },
      "additionalContracts": [],
      "isFixedGasLimit": false
    }
  ],
  "receipts": [
    {
      "status": "0x1",
      "cumulativeGasUsed": "0x66b1",
      "logs": [
        {
          "address": "0x3c604069c87256bbab9cc3ff678410275b156755",
          "topics": [
            "0x8c5be1e5ebec7d5bd14f71427d1e84f3dd0314c0f7b2291e5b200ac8c7c3b925",
            "0x00000000000000000000000028482b1279e442f49ee76351801232d58f341cb9",
            "0x000000000000000000000000000000000022d473030f116ddee9f6b43ac78ba3"
          ],
          "data": "0xffffffffffffffffffffffffffffffffffffffffffffffffffffffffffffffff",
          "blockHash": "0x0c3f3d74c3547dd828c4248288c02bc2740d3691e3eecd2fca89f93c170038dc",
          "blockNumber": "0xe8ffdcc",
          "blockTimestamp": "0x6999a748",
          "transactionHash": "0x5aecd7ffa84024aee08f30d475801d3a605afdc4e4440dff0d1d4a3f3fc444a2",
          "transactionIndex": "0x1",
          "logIndex": "0x0",
          "removed": false
        }
      ],
      "logsBloom": "0x00000000000000000000000000000002000000000000000000000000000000000000000000000000000000000000000000000000800000000000000000200000000000000000000000004000000000000000000000000800000000000000000000000000000000000000002000000000000000000000000000000000000000000000000000000000000000000000000000000000000000000000000000000000020000000000000000000000000000000000000000000000000000000000000800000000000000000000100000000000000000000000000000000000000000000010000000000000000000000000000000000000000000000000000000000800",
      "type": "0x2",
      "transactionHash": "0x5aecd7ffa84024aee08f30d475801d3a605afdc4e4440dff0d1d4a3f3fc444a2",
      "transactionIndex": "0x1",
      "blockHash": "0x0c3f3d74c3547dd828c4248288c02bc2740d3691e3eecd2fca89f93c170038dc",
      "blockNumber": "0xe8ffdcc",
      "gasUsed": "0x66b1",
      "effectiveGasPrice": "0x13134d0",
      "from": "0x28482b1279e442f49ee76351801232d58f341cb9",
      "to": "0x3c604069c87256bbab9cc3ff678410275b156755",
      "contractAddress": null,
      "gasUsedForL1": "0x0",
      "l1BlockNumber": "0x9d4393",
      "timeboosted": false
    },
    {
      "status": "0x1",
      "cumulativeGasUsed": "0x66b1",
      "logs": [
        {
          "address": "0x3cbe896e5e4093d6bf8dc0dc7a44c50552c0651e",
          "topics": [
            "0x8c5be1e5ebec7d5bd14f71427d1e84f3dd0314c0f7b2291e5b200ac8c7c3b925",
            "0x00000000000000000000000028482b1279e442f49ee76351801232d58f341cb9",
            "0x000000000000000000000000000000000022d473030f116ddee9f6b43ac78ba3"
          ],
          "data": "0xffffffffffffffffffffffffffffffffffffffffffffffffffffffffffffffff",
          "blockHash": "0x62bce60c39a595399fe1fe160bcb02cfbfa848694d061d821d814826dbf2b2c7",
          "blockNumber": "0xe8ffdd2",
          "blockTimestamp": "0x6999a74a",
          "transactionHash": "0x2161c384f6bd79f95229554d2ee82242aad9e9c591858dcabcf5ecd24597da65",
          "transactionIndex": "0x1",
          "logIndex": "0x0",
          "removed": false
        }
      ],
      "logsBloom": "0x00000000000000000000000000000002000000000000000000000000000000000000000000000000000000000000000000000000800000000000000000200000000000000000000000004004000000000000000000000800000000000000000000000000000000000000000000000000000000000000000000000000000000000000000000000000000000000000000000000000000000000000000000000000020000000000000000000000000000000000000000000000000000004000000000000000000000000000100000000000000000000000000000000000000000000010000000000000000000000000000000000000000000000000000000001000",
      "type": "0x2",
      "transactionHash": "0x2161c384f6bd79f95229554d2ee82242aad9e9c591858dcabcf5ecd24597da65",
      "transactionIndex": "0x1",
      "blockHash": "0x62bce60c39a595399fe1fe160bcb02cfbfa848694d061d821d814826dbf2b2c7",
      "blockNumber": "0xe8ffdd2",
      "gasUsed": "0x66b1",
      "effectiveGasPrice": "0x1312d00",
      "from": "0x28482b1279e442f49ee76351801232d58f341cb9",
      "to": "0x3cbe896e5e4093d6bf8dc0dc7a44c50552c0651e",
      "contractAddress": null,
      "gasUsedForL1": "0x0",
      "l1BlockNumber": "0x9d4393",
      "timeboosted": false
    },
    {
      "status": "0x1",
      "cumulativeGasUsed": "0x6d0e",
      "logs": [
        {
          "address": "0x000000000022d473030f116ddee9f6b43ac78ba3",
          "topics": [
            "0xda9fa7c1b00402c17d0161b249b1ab8bbec047c5a52207b9c112deffd817036b",
            "0x00000000000000000000000028482b1279e442f49ee76351801232d58f341cb9",
            "0x0000000000000000000000003c604069c87256bbab9cc3ff678410275b156755",
            "0x000000000000000000000000ac631556d3d4019c95769033b5e719dd77124bac"
          ],
          "data": "0x000000000000000000000000ffffffffffffffffffffffffffffffffffffffff0000000000000000000000000000000000000000000000000000ffffffffffff",
          "blockHash": "0xe9acfa15c2ef1b9cfbe833feaba70d28d685b024be66c41c668c5e11a55e4549",
          "blockNumber": "0xe8ffdde",
          "blockTimestamp": "0x6999a74e",
          "transactionHash": "0x8f18fae10eb5e159bc73ba6efe8d81fad18d1209a49daa16870001ef64079237",
          "transactionIndex": "0x1",
          "logIndex": "0x0",
          "removed": false
        }
      ],
      "logsBloom": "0x00410000000000000000000000000002000000000000000000000000000000000000000000000000100000000000000000000000800000000000000000080000000020000020000000000000000000000000000000000000000000000000000000000000000000000000000000000000000000000000000000800000000000000020000000000000000000000000000000000000000000000000000000000000000000000000000000000000000000000000000000000000000000080000000000000000000000000000110000000000000000000000000040000000000000000000000000000000000000000000000000000000000000000000000000000400",
      "type": "0x2",
      "transactionHash": "0x8f18fae10eb5e159bc73ba6efe8d81fad18d1209a49daa16870001ef64079237",
      "transactionIndex": "0x1",
      "blockHash": "0xe9acfa15c2ef1b9cfbe833feaba70d28d685b024be66c41c668c5e11a55e4549",
      "blockNumber": "0xe8ffdde",
      "gasUsed": "0x6d0e",
      "effectiveGasPrice": "0x1317b20",
      "from": "0x28482b1279e442f49ee76351801232d58f341cb9",
      "to": "0x000000000022d473030f116ddee9f6b43ac78ba3",
      "contractAddress": null,
      "gasUsedForL1": "0x0",
      "l1BlockNumber": "0x9d4393",
      "timeboosted": false
    },
    {
      "status": "0x1",
      "cumulativeGasUsed": "0x6d0e",
      "logs": [
        {
          "address": "0x000000000022d473030f116ddee9f6b43ac78ba3",
          "topics": [
            "0xda9fa7c1b00402c17d0161b249b1ab8bbec047c5a52207b9c112deffd817036b",
            "0x00000000000000000000000028482b1279e442f49ee76351801232d58f341cb9",
            "0x0000000000000000000000003cbe896e5e4093d6bf8dc0dc7a44c50552c0651e",
            "0x000000000000000000000000ac631556d3d4019c95769033b5e719dd77124bac"
          ],
          "data": "0x000000000000000000000000ffffffffffffffffffffffffffffffffffffffff0000000000000000000000000000000000000000000000000000ffffffffffff",
          "blockHash": "0xa2a2c7616cf7dcfb9affd31d83a851a28c7bc8ea01056236403ad294d0b2d2d5",
          "blockNumber": "0xe8ffdf1",
          "blockTimestamp": "0x6999a754",
          "transactionHash": "0xf564eb9f5d04aeec69b0c630c117443d963f2a637396cef160d5a073aff7ae06",
          "transactionIndex": "0x1",
          "logIndex": "0x0",
          "removed": false
        }
      ],
      "logsBloom": "0x00010000000000000000000000000002000000000000000000000000000000000000200000002000100000000000000000000000800000000000000000080000000000000020000000000000000000000000000000000000000000000000000000000000000000000000000000000000000000000000000000000000000000000020000000000000000000000000000000000000002000000000000000000000000000000000000000000000000000000000000000000000000000080000000000000000000000000000110000000000000000000000000040000000000000000000000000000000000000000000000000000000000000000000000000000400",
      "type": "0x2",
      "transactionHash": "0xf564eb9f5d04aeec69b0c630c117443d963f2a637396cef160d5a073aff7ae06",
      "transactionIndex": "0x1",
      "blockHash": "0xa2a2c7616cf7dcfb9affd31d83a851a28c7bc8ea01056236403ad294d0b2d2d5",
      "blockNumber": "0xe8ffdf1",
      "gasUsed": "0x6d0e",
      "effectiveGasPrice": "0x1315410",
      "from": "0x28482b1279e442f49ee76351801232d58f341cb9",
      "to": "0x000000000022d473030f116ddee9f6b43ac78ba3",
      "contractAddress": null,
      "gasUsedForL1": "0x0",
      "l1BlockNumber": "0x9d4393",
      "timeboosted": false
    },
    {
      "status": "0x1",
      "cumulativeGasUsed": "0xc9a33",
      "logs": [
        {
          "address": "0xac631556d3d4019c95769033b5e719dd77124bac",
          "topics": [
            "0xddf252ad1be2c89b69c2b068fc378daa952ba7f163c4a11628f55a4df523b3ef",
            "0x0000000000000000000000000000000000000000000000000000000000000000",
            "0x00000000000000000000000028482b1279e442f49ee76351801232d58f341cb9",
            "0x00000000000000000000000000000000000000000000000000000000000000e5"
          ],
          "data": "0x",
          "blockHash": "0x10646b8f5928b7a193ecdda8e12685d8a9aaeec17e81e12426bd8c69e9412f99",
          "blockNumber": "0xe8ffdfa",
          "blockTimestamp": "0x6999a758",
          "transactionHash": "0xb86ed40013d2382e89cd14cd671b8a05cf161a9c1220738425ad46fbbf8fdfaa",
          "transactionIndex": "0x4",
          "logIndex": "0xc",
          "removed": false
        },
        {
          "address": "0xfb3e0c6f74eb1a21cc1da29aec80d2dfe6c9a317",
          "topics": [
            "0xf208f4912782fd25c7f114ca3723a2d5dd6f3bcc3ac8db5af63baa85f711d5ec",
            "0xa2f2ba1fe0f2cf08686544d42608e24526d01ccdb7f3f52ce74cb03c4aab09d2",
            "0x000000000000000000000000ac631556d3d4019c95769033b5e719dd77124bac"
          ],
          "data": "0xfffffffffffffffffffffffffffffffffffffffffffffffffffffffffffebaecfffffffffffffffffffffffffffffffffffffffffffffffffffffffffffebb640000000000000000000000000000000000000000000000000000004e230790f900000000000000000000000000000000000000000000000000000000000000e5",
          "blockHash": "0x10646b8f5928b7a193ecdda8e12685d8a9aaeec17e81e12426bd8c69e9412f99",
          "blockNumber": "0xe8ffdfa",
          "blockTimestamp": "0x6999a758",
          "transactionHash": "0xb86ed40013d2382e89cd14cd671b8a05cf161a9c1220738425ad46fbbf8fdfaa",
          "transactionIndex": "0x4",
          "logIndex": "0xd",
          "removed": false
        },
        {
          "address": "0x3c604069c87256bbab9cc3ff678410275b156755",
          "topics": [
            "0xddf252ad1be2c89b69c2b068fc378daa952ba7f163c4a11628f55a4df523b3ef",
            "0x00000000000000000000000028482b1279e442f49ee76351801232d58f341cb9",
            "0x000000000000000000000000fb3e0c6f74eb1a21cc1da29aec80d2dfe6c9a317"
          ],
          "data": "0x000000000000000000000000000000000000000000000000000000146a5847b2",
          "blockHash": "0x10646b8f5928b7a193ecdda8e12685d8a9aaeec17e81e12426bd8c69e9412f99",
          "blockNumber": "0xe8ffdfa",
          "blockTimestamp": "0x6999a758",
          "transactionHash": "0xb86ed40013d2382e89cd14cd671b8a05cf161a9c1220738425ad46fbbf8fdfaa",
          "transactionIndex": "0x4",
          "logIndex": "0xe",
          "removed": false
        },
        {
          "address": "0x3cbe896e5e4093d6bf8dc0dc7a44c50552c0651e",
          "topics": [
            "0xddf252ad1be2c89b69c2b068fc378daa952ba7f163c4a11628f55a4df523b3ef",
            "0x00000000000000000000000028482b1279e442f49ee76351801232d58f341cb9",
            "0x000000000000000000000000fb3e0c6f74eb1a21cc1da29aec80d2dfe6c9a317"
          ],
          "data": "0x0000000000000000000000000000000000000000000000000000000000989680",
          "blockHash": "0x10646b8f5928b7a193ecdda8e12685d8a9aaeec17e81e12426bd8c69e9412f99",
          "blockNumber": "0xe8ffdfa",
          "blockTimestamp": "0x6999a758",
          "transactionHash": "0xb86ed40013d2382e89cd14cd671b8a05cf161a9c1220738425ad46fbbf8fdfaa",
          "transactionIndex": "0x4",
          "logIndex": "0xf",
          "removed": false
        }
      ],
      "logsBloom": "0x0000004000000200000000000000000a00000000002010000000000000000000000000000000000010000000010000000000000080000000000000200000004000000000002000000400000c000000000000000000000000000000000000000000000000020400000000002000000800000000000000000000000010000000000000000001000000000000000000000000000000000000000000000000000000000004200000000000000000000000000000000000000000000000004000000800000002000000000000110000000000000000000000000000000000000020000000000040000000410000000000000004000000000000000000000000001804",
      "type": "0x2",
      "transactionHash": "0xb86ed40013d2382e89cd14cd671b8a05cf161a9c1220738425ad46fbbf8fdfaa",
      "transactionIndex": "0x4",
      "blockHash": "0x10646b8f5928b7a193ecdda8e12685d8a9aaeec17e81e12426bd8c69e9412f99",
      "blockNumber": "0xe8ffdfa",
      "gasUsed": "0x4ee25",
      "effectiveGasPrice": "0x1313ca0",
      "from": "0x28482b1279e442f49ee76351801232d58f341cb9",
      "to": "0xac631556d3d4019c95769033b5e719dd77124bac",
      "contractAddress": null,
      "gasUsedForL1": "0x0",
      "l1BlockNumber": "0x9d4394",
      "timeboosted": false
    }
  ],
  "libraries": [],
  "pending": [],
  "returns": {},
  "timestamp": 1771677530394,
  "chain": 421614,
  "commit": "2e514a1"
}