{
  "transactions": [
    {
      "hash": "0xe23f22dfccc6af39d2c6ca945a7998fa836fb804c0c4cf05cb06e752e722a66e",
      "transactionType": "CALL",
      "contractName": null,
      "contractAddress": "0xfb3e0c6f74eb1a21cc1da29aec80d2dfe6c9a317",
      "function": "initialize((address,address,uint24,int24,address),uint160)",
      "arguments": [
        "(0x3c604069c87256BBab9CC3fF678410275B156755, 0x3CBe896e5E4093d6BF8Dc0DC7a44C50552c0651E, 3000, 60, 0xe3ea87fB759C3206A9595048732eb6A6000700C4)",
        "79228162514264337593543950336"
      ],
      "transaction": {
        "from": "0x28482b1279e442f49ee76351801232d58f341cb9",
        "to": "0xfb3e0c6f74eb1a21cc1da29aec80d2dfe6c9a317",
        "gas": "0x1af59",
        "value": "0x0",
        "input": "0x6276cbbe0000000000000000000000003c604069c87256bbab9cc3ff678410275b1567550000000000000000000000003cbe896e5e4093d6bf8dc0dc7a44c50552c0651e0000000000000000000000000000000000000000000000000000000000000bb8000000000000000000000000000000000000000000000000000000000000003c000000000000000000000000e3ea87fb759c3206a9595048732eb6a6000700c40000000000000000000000000000000000000001000000000000000000000000",
        "nonce": "0x9a",
        "chainId": "0x66eee"
      },
      "additionalContracts": [],
      "isFixedGasLimit": false
    },
    {
      "hash": "0x7f3c5d7548e9bfc84daa745b903a298187d07dfac831d6d817ffd9db32ff7414",
      "transactionType": "CALL",
      "contractName": null,
      "contractAddress": "0x3c604069c87256bbab9cc3ff678410275b156755",
      "function": "approve(address,uint256)",
      "arguments": [
        "0x000000000022D473030F116dDEE9F6B43aC78BA3",
        "115792089237316195423570985008687907853269984665640564039457584007913129639935"
      ],
      "transaction": {
        "from": "0x28482b1279e442f49ee76351801232d58f341cb9",
        "to": "0x3c604069c87256bbab9cc3ff678410275b156755",
        "gas": "0xece2",
        "value": "0x0",
        "input": "0x095ea7b3000000000000000000000000000000000022d473030f116ddee9f6b43ac78ba3ffffffffffffffffffffffffffffffffffffffffffffffffffffffffffffffff",
        "nonce": "0x9b",
        "chainId": "0x66eee"
      },
      "additionalContracts": [],
      "isFixedGasLimit": false
    },
    {
      "hash": "0x45f4603ea61106d4472ba768010a0d7e47dbaefc96e810ae0977d4d645c1dd7c",
      "transactionType": "CALL",
      "contractName": null,
      "contractAddress": "0x3cbe896e5e4093d6bf8dc0dc7a44c50552c0651e",
      "function": "approve(address,uint256)",
      "arguments": [
        "0x000000000022D473030F116dDEE9F6B43aC78BA3",
        "115792089237316195423570985008687907853269984665640564039457584007913129639935"
      ],
      "transaction": {
        "from": "0x28482b1279e442f49ee76351801232d58f341cb9",
        "to": "0x3cbe896e5e4093d6bf8dc0dc7a44c50552c0651e",
        "gas": "0xece2",
        "value": "0x0",
        "input": "0x095ea7b3000000000000000000000000000000000022d473030f116ddee9f6b43ac78ba3ffffffffffffffffffffffffffffffffffffffffffffffffffffffffffffffff",
        "nonce": "0x9c",
        "chainId": "0x66eee"
      },
      "additionalContracts": [],
      "isFixedGasLimit": false
    },
    {
      "hash": "0x81b43b42a6a719d3bfb3e2ad05d3eaf8bae06f74dea094ab4e02a77dcffbfff3",
      "transactionType": "CALL",
      "contractName": null,
      "contractAddress": "0x000000000022d473030f116ddee9f6b43ac78ba3",
      "function": "approve(address,address,uint160,uint48)",
      "arguments": [
        "0x3c604069c87256BBab9CC3fF678410275B156755",
        "0xAc631556d3d4019C95769033B5E719dD77124BAc",
        "1461501637330902918203684832716283019655932542975",
        "281474976710655"
      ],
      "transaction": {
        "from": "0x28482b1279e442f49ee76351801232d58f341cb9",
        "to": "0x000000000022d473030f116ddee9f6b43ac78ba3",
        "gas": "0x11718",
        "value": "0x0",
        "input": "0x87517c450000000000000000000000003c604069c87256bbab9cc3ff678410275b156755000000000000000000000000ac631556d3d4019c95769033b5e719dd77124bac000000000000000000000000ffffffffffffffffffffffffffffffffffffffff0000000000000000000000000000000000000000000000000000ffffffffffff",
        "nonce": "0x9d",
        "chainId": "0x66eee"
      },
      "additionalContracts": [],
      "isFixedGasLimit": false
    },
    {
      "hash": "0xe13637daf3511e5eab5414b82aec5bfa342694f9b68e4b851456007ecbceca5f",
      "transactionType": "CALL",
      "contractName": null,
      "contractAddress": "0x000000000022d473030f116ddee9f6b43ac78ba3",
      "function": "approve(address,address,uint160,uint48)",
      "arguments": [
        "0x3CBe896e5E4093d6BF8Dc0DC7a44C50552c0651E",
        "0xAc631556d3d4019C95769033B5E719dD77124BAc",
        "1461501637330902918203684832716283019655932542975",
        "281474976710655"
      ],
      "transaction": {
        "from": "0x28482b1279e442f49ee76351801232d58f341cb9",
        "to": "0x000000000022d473030f116ddee9f6b43ac78ba3",
        "gas": "0x11718",
        "value": "0x0",
        "input": "0x87517c450000000000000000000000003cbe896e5e4093d6bf8dc0dc7a44c50552c0651e000000000000000000000000ac631556d3d4019c95769033b5e719dd77124bac000000000000000000000000ffffffffffffffffffffffffffffffffffffffff0000000000000000000000000000000000000000000000000000ffffffffffff",
        "nonce": "0x9e",
        "chainId": "0x66eee"
      },
      "additionalContracts": [],
      "isFixedGasLimit": false
    },
    {
      "hash": "0x86b743ad59d43a6d07aa368ef506e042fde848d9a002a178c3a33c2a9ea30df8",
      "transactionType": "CALL",
      "contractName": null,
      "contractAddress": "0xac631556d3d4019c95769033b5e719dd77124bac",
      "function": "modifyLiquidities(bytes,uint256)",
      "arguments": [
        "0x0000000000000000000000000000000000000000000000000000000000000040000000000000000000000000000000000000000000000000000000000000008000000000000000000000000000000000000000000000000000000000000000030212120000000000000000000000000000000000000000000000000000000000000000000000000000000000000000000000000000000000000000000000000300000000000000000000000000000000000000000000000000000000000000600000000000000000000000000000000000000000000000000000000000000220000000000000000000000000000000000000000000000000000000000000026000000000000000000000000000000000000000000000000000000000000001a00000000000000000000000003c604069c87256bbab9cc3ff678410275b1567550000000000000000000000003cbe896e5e4093d6bf8dc0dc7a44c50552c0651e0000000000000000000000000000000000000000000000000000000000000bb8000000000000000000000000000000000000000000000000000000000000003c000000000000000000000000e3ea87fb759c3206a9595048732eb6a6000700c4ffffffffffffffffffffffffffffffffffffffffffffffffffffffffffffffc4000000000000000000000000000000000000000000000000000000000000003c00000000000000000000000000000000000000000000000000000000c6fd81610000000000000000000000000000000000000000000000008d8dadf544fc0000000000000000000000000000000000000000000000000000000000000098968000000000000000000000000028482b1279e442f49ee76351801232d58f341cb90000000000000000000000000000000000000000000000000000000000000180000000000000000000000000000000000000000000000000000000000000000000000000000000000000000000000000000000000000000000000000000000200000000000000000000000003c604069c87256bbab9cc3ff678410275b15675500000000000000000000000000000000000000000000000000000000000000200000000000000000000000003cbe896e5e4093d6bf8dc0dc7a44c50552c0651e",
        "1771518697"
      ],
      "transaction": {
        "from": "0x28482b1279e442f49ee76351801232d58f341cb9",
        "to": "0xac631556d3d4019c95769033b5e719dd77124bac",
        "gas": "0x8b2c3",
        "value": "0x0",
        "input": "0xdd46508f00000000000000000000000000000000000000000000000000000000000000400000000000000000000000000000000000000000000000000000000069973ae900000000000000000000000000000000000000000000000000000000000003400000000000000000000000000000000000000000000000000000000000000040000000000000000000000000000000000000000000000000000000000000008000000000000000000000000000000000000000000000000000000000000000030212120000000000000000000000000000000000000000000000000000000000000000000000000000000000000000000000000000000000000000000000000300000000000000000000000000000000000000000000000000000000000000600000000000000000000000000000000000000000000000000000000000000220000000000000000000000000000000000000000000000000000000000000026000000000000000000000000000000000000000000000000000000000000001a00000000000000000000000003c604069c87256bbab9cc3ff678410275b1567550000000000000000000000003cbe896e5e4093d6bf8dc0dc7a44c50552c0651e0000000000000000000000000000000000000000000000000000000000000bb8000000000000000000000000000000000000000000000000000000000000003c000000000000000000000000e3ea87fb759c3206a9595048732eb6a6000700c4ffffffffffffffffffffffffffffffffffffffffffffffffffffffffffffffc4000000000000000000000000000000000000000000000000000000000000003c00000000000000000000000000000000000000000000000000000000c6fd81610000000000000000000000000000000000000000000000008d8dadf544fc0000000000000000000000000000000000000000000000000000000000000098968000000000000000000000000028482b1279e442f49ee76351801232d58f341cb90000000000000000000000000000000000000000000000000000000000000180000000000000000000000000000000000000000000000000000000000000000000000000000000000000000000000000000000000000000000000000000000200000000000000000000000003c604069c87256bbab9cc3ff678410275b15675500000000000000000000000000000000000000000000000000000000000000200000000000000000000000003cbe896e5e4093d6bf8dc0dc7a44c50552c0651e",
        "nonce": "0x9f",
        "chainId": "0x66eee"
      },
      "additionalContracts": [],
      "isFixedGasLimit": false
    }
  ],
  "receipts": [
    {
      "status": "0x1",
      "cumulativeGasUsed": "0x1335f",
      "logs": [
        {
          "address": "0xfb3e0c6f74eb1a21cc1da29aec80d2dfe6c9a317",
          "topics": [
            "0xdd466e674ea557f56295e2d0218a125ea4b4f0f6f3307b95f85e6110838d6438",
            "0xa2f2ba1fe0f2cf08686544d42608e24526d01ccdb7f3f52ce74cb03c4aab09d2",
            "0x0000000000000000000000003c604069c87256bbab9cc3ff678410275b156755",
            "0x0000000000000000000000003cbe896e5e4093d6bf8dc0dc7a44c50552c0651e"
          ],
          "data": "0x0000000000000000000000000000000000000000000000000000000000000bb8000000000000000000000000000000000000000000000000000000000000003c000000000000000000000000e3ea87fb759c3206a9595048732eb6a6000700c400000000000000000000000000000000000000010000000000000000000000000000000000000000000000000000000000000000000000000000000000000000",
          "blockHash": "0x9e442b81c29e9ade80cd2c8f45d289e66fd3bf8b161d33ff4db9df746b3136f8",
          "blockNumber": "0xe89ee76",
          "blockTimestamp": "0x699739cf",
          "transactionHash": "0xe23f22dfccc6af39d2c6ca945a7998fa836fb804c0c4cf05cb06e752e722a66e",
          "transactionIndex": "0x1",
          "logIndex": "0x0",
          "removed": false
        }
      ],
      "logsBloom": "0x00400000000000000000000000000000000000000000000000000000000000000000200000002000000000000100000000000000000000000000000000000040000020000000000004000000000000000000000000000000000000000000000000000000000400000000000000000000000000000000000000800000000000000000000000000008000000000000000000000001002000000000000000200000000000000000000000000000000000000000000000000000000000000000000000000000000000000000000000000000000000000000000000000000000000000000000040000000000000000000000000000000000000000000000000000004",
      "type": "0x2",
      "transactionHash": "0xe23f22dfccc6af39d2c6ca945a7998fa836fb804c0c4cf05cb06e752e722a66e",
      "transactionIndex": "0x1",
      "blockHash": "0x9e442b81c29e9ade80cd2c8f45d289e66fd3bf8b161d33ff4db9df746b3136f8",
      "blockNumber": "0xe89ee76",
      "gasUsed": "0x1335f",
      "effectiveGasPrice": "0x1312d00",
      "from": "0x28482b1279e442f49ee76351801232d58f341cb9",
      "to": "0xfb3e0c6f74eb1a21cc1da29aec80d2dfe6c9a317",
      "contractAddress": null,
      "gasUsedForL1": "0x6961",
      "l1BlockNumber": "0x9d1207",
      "timeboosted": false
    },
    {
      "status": "0x1",
      "cumulativeGasUsed": "0xa55e",
      "logs": [
        {
          "address": "0x3c604069c87256bbab9cc3ff678410275b156755",
          "topics": [
            "0x8c5be1e5ebec7d5bd14f71427d1e84f3dd0314c0f7b2291e5b200ac8c7c3b925",
            "0x00000000000000000000000028482b1279e442f49ee76351801232d58f341cb9",
            "0x000000000000000000000000000000000022d473030f116ddee9f6b43ac78ba3"
          ],
          "data": "0xffffffffffffffffffffffffffffffffffffffffffffffffffffffffffffffff",
          "blockHash": "0x316551949f05c3a94d44189904748601f1dae38caf6d8edb890504180b3fbf18",
          "blockNumber": "0xe89ee7a",
          "blockTimestamp": "0x699739d0",
          "transactionHash": "0x7f3c5d7548e9bfc84daa745b903a298187d07dfac831d6d817ffd9db32ff7414",
          "transactionIndex": "0x1",
          "logIndex": "0x0",
          "removed": false
        }
      ],
      "logsBloom": "0x00000000000000000000000000000002000000000000000000000000000000000000000000000000000000000000000000000000800000000000000000200000000000000000000000004000000000000000000000000800000000000000000000000000000000000000002000000000000000000000000000000000000000000000000000000000000000000000000000000000000000000000000000000000020000000000000000000000000000000000000000000000000000000000000800000000000000000000100000000000000000000000000000000000000000000010000000000000000000000000000000000000000000000000000000000800",
      "type": "0x2",
      "transactionHash": "0x7f3c5d7548e9bfc84daa745b903a298187d07dfac831d6d817ffd9db32ff7414",
      "transactionIndex": "0x1",
      "blockHash": "0x316551949f05c3a94d44189904748601f1dae38caf6d8edb890504180b3fbf18",
      "blockNumber": "0xe89ee7a",
      "gasUsed": "0xa55e",
      "effectiveGasPrice": "0x1312d00",
      "from": "0x28482b1279e442f49ee76351801232d58f341cb9",
      "to": "0x3c604069c87256bbab9cc3ff678410275b156755",
      "contractAddress": null,
      "gasUsedForL1": "0x3ead",
      "l1BlockNumber": "0x9d1207",
      "timeboosted": false
    },
    {
      "status": "0x1",
      "cumulativeGasUsed": "0xa55e",
      "logs": [
        {
          "address": "0x3cbe896e5e4093d6bf8dc0dc7a44c50552c0651e",
          "topics": [
            "0x8c5be1e5ebec7d5bd14f71427d1e84f3dd0314c0f7b2291e5b200ac8c7c3b925",
            "0x00000000000000000000000028482b1279e442f49ee76351801232d58f341cb9",
            "0x000000000000000000000000000000000022d473030f116ddee9f6b43ac78ba3"
          ],
          "data": "0xffffffffffffffffffffffffffffffffffffffffffffffffffffffffffffffff",
          "blockHash": "0x54af3815ad2975f23ca8e9c0686ca5c31456016e986c373103c321e50b170643",
          "blockNumber": "0xe89ee7c",
          "blockTimestamp": "0x699739d1",
          "transactionHash": "0x45f4603ea61106d4472ba768010a0d7e47dbaefc96e810ae0977d4d645c1dd7c",
          "transactionIndex": "0x1",
          "logIndex": "0x0",
          "removed": false
        }
      ],
      "logsBloom": "0x00000000000000000000000000000002000000000000000000000000000000000000000000000000000000000000000000000000800000000000000000200000000000000000000000004004000000000000000000000800000000000000000000000000000000000000000000000000000000000000000000000000000000000000000000000000000000000000000000000000000000000000000000000000020000000000000000000000000000000000000000000000000000004000000000000000000000000000100000000000000000000000000000000000000000000010000000000000000000000000000000000000000000000000000000001000",
      "type": "0x2",
      "transactionHash": "0x45f4603ea61106d4472ba768010a0d7e47dbaefc96e810ae0977d4d645c1dd7c",
      "transactionIndex": "0x1",
      "blockHash": "0x54af3815ad2975f23ca8e9c0686ca5c31456016e986c373103c321e50b170643",
      "blockNumber": "0xe89ee7c",
      "gasUsed": "0xa55e",
      "effectiveGasPrice": "0x1312d00",
      "from": "0x28482b1279e442f49ee76351801232d58f341cb9",
      "to": "0x3cbe896e5e4093d6bf8dc0dc7a44c50552c0651e",
      "contractAddress": null,
      "gasUsedForL1": "0x3ead",
      "l1BlockNumber": "0x9d1207",
      "timeboosted": false
    },
    {
      "status": "0x1",
      "cumulativeGasUsed": "0xc21d",
      "logs": [
        {
          "address": "0x000000000022d473030f116ddee9f6b43ac78ba3",
          "topics": [
            "0xda9fa7c1b00402c17d0161b249b1ab8bbec047c5a52207b9c112deffd817036b",
            "0x00000000000000000000000028482b1279e442f49ee76351801232d58f341cb9",
            "0x0000000000000000000000003c604069c87256bbab9cc3ff678410275b156755",
            "0x000000000000000000000000ac631556d3d4019c95769033b5e719dd77124bac"
          ],
          "data": "0x000000000000000000000000ffffffffffffffffffffffffffffffffffffffff0000000000000000000000000000000000000000000000000000ffffffffffff",
          "blockHash": "0x17b946447bb60d9c1d40860da8df38eedcc0099521ba623255da1d25ed9e80ec",
          "blockNumber": "0xe89ee7e",
          "blockTimestamp": "0x699739d3",
          "transactionHash": "0x81b43b42a6a719d3bfb3e2ad05d3eaf8bae06f74dea094ab4e02a77dcffbfff3",
          "transactionIndex": "0x1",
          "logIndex": "0x0",
          "removed": false
        }
      ],
      "logsBloom": "0x00410000000000000000000000000002000000000000000000000000000000000000000000000000100000000000000000000000800000000000000000080000000020000020000000000000000000000000000000000000000000000000000000000000000000000000000000000000000000000000000000800000000000000020000000000000000000000000000000000000000000000000000000000000000000000000000000000000000000000000000000000000000000080000000000000000000000000000110000000000000000000000000040000000000000000000000000000000000000000000000000000000000000000000000000000400",
      "type": "0x2",
      "transactionHash": "0x81b43b42a6a719d3bfb3e2ad05d3eaf8bae06f74dea094ab4e02a77dcffbfff3",
      "transactionIndex": "0x1",
      "blockHash": "0x17b946447bb60d9c1d40860da8df38eedcc0099521ba623255da1d25ed9e80ec",
      "blockNumber": "0xe89ee7e",
      "gasUsed": "0xc21d",
      "effectiveGasPrice": "0x1312d00",
      "from": "0x28482b1279e442f49ee76351801232d58f341cb9",
      "to": "0x000000000022d473030f116ddee9f6b43ac78ba3",
      "contractAddress": null,
      "gasUsedForL1": "0x550f",
      "l1BlockNumber": "0x9d1207",
      "timeboosted": false
    },
    {
      "status": "0x1",
      "cumulativeGasUsed": "0xc20e",
      "logs": [
        {
          "address": "0x000000000022d473030f116ddee9f6b43ac78ba3",
          "topics": [
            "0xda9fa7c1b00402c17d0161b249b1ab8bbec047c5a52207b9c112deffd817036b",
            "0x00000000000000000000000028482b1279e442f49ee76351801232d58f341cb9",
            "0x0000000000000000000000003cbe896e5e4093d6bf8dc0dc7a44c50552c0651e",
            "0x000000000000000000000000ac631556d3d4019c95769033b5e719dd77124bac"
          ],
          "data": "0x000000000000000000000000ffffffffffffffffffffffffffffffffffffffff0000000000000000000000000000000000000000000000000000ffffffffffff",
          "blockHash": "0x2729974ec4d40ac18115b8e6b7595cc69fa2d0c10ae504e29d546ea759885879",
          "blockNumber": "0xe89ee83",
          "blockTimestamp": "0x699739d4",
          "transactionHash": "0xe13637daf3511e5eab5414b82aec5bfa342694f9b68e4b851456007ecbceca5f",
          "transactionIndex": "0x1",
          "logIndex": "0x0",
          "removed": false
        }
      ],
      "logsBloom": "0x00010000000000000000000000000002000000000000000000000000000000000000200000002000100000000000000000000000800000000000000000080000000000000020000000000000000000000000000000000000000000000000000000000000000000000000000000000000000000000000000000000000000000000020000000000000000000000000000000000000002000000000000000000000000000000000000000000000000000000000000000000000000000080000000000000000000000000000110000000000000000000000000040000000000000000000000000000000000000000000000000000000000000000000000000000400",
      "type": "0x2",
      "transactionHash": "0xe13637daf3511e5eab5414b82aec5bfa342694f9b68e4b851456007ecbceca5f",
      "transactionIndex": "0x1",
      "blockHash": "0x2729974ec4d40ac18115b8e6b7595cc69fa2d0c10ae504e29d546ea759885879",
      "blockNumber": "0xe89ee83",
      "gasUsed": "0xc20e",
      "effectiveGasPrice": "0x13163b0",
      "from": "0x28482b1279e442f49ee76351801232d58f341cb9",
      "to": "0x000000000022d473030f116ddee9f6b43ac78ba3",
      "contractAddress": null,
      "gasUsedForL1": "0x5500",
      "l1BlockNumber": "0x9d1207",
      "timeboosted": false
    },
    {
      "status": "0x1",
      "cumulativeGasUsed": "0x685e1",
      "logs": [
        {
          "address": "0xac631556d3d4019c95769033b5e719dd77124bac",
          "topics": [
            "0xddf252ad1be2c89b69c2b068fc378daa952ba7f163c4a11628f55a4df523b3ef",
            "0x0000000000000000000000000000000000000000000000000000000000000000",
            "0x00000000000000000000000028482b1279e442f49ee76351801232d58f341cb9",
            "0x00000000000000000000000000000000000000000000000000000000000000e0"
          ],
          "data": "0x",
          "blockHash": "0x1511f9acde90e58b30d767f324d58e60ad6589febe2d287a1ccfeeed4a608b21",
          "blockNumber": "0xe89ee89",
          "blockTimestamp": "0x699739d5",
          "transactionHash": "0x86b743ad59d43a6d07aa368ef506e042fde848d9a002a178c3a33c2a9ea30df8",
          "transactionIndex": "0x1",
          "logIndex": "0x0",
          "removed": false
        },
        {
          "address": "0xfb3e0c6f74eb1a21cc1da29aec80d2dfe6c9a317",
          "topics": [
            "0xf208f4912782fd25c7f114ca3723a2d5dd6f3bcc3ac8db5af63baa85f711d5ec",
            "0xa2f2ba1fe0f2cf08686544d42608e24526d01ccdb7f3f52ce74cb03c4aab09d2",
            "0x000000000000000000000000ac631556d3d4019c95769033b5e719dd77124bac"
          ],
          "data": "0xffffffffffffffffffffffffffffffffffffffffffffffffffffffffffffffc4000000000000000000000000000000000000000000000000000000000000003c00000000000000000000000000000000000000000000000000000000c6fd816100000000000000000000000000000000000000000000000000000000000000e0",
          "blockHash": "0x1511f9acde90e58b30d767f324d58e60ad6589febe2d287a1ccfeeed4a608b21",
          "blockNumber": "0xe89ee89",
          "blockTimestamp": "0x699739d5",
          "transactionHash": "0x86b743ad59d43a6d07aa368ef506e042fde848d9a002a178c3a33c2a9ea30df8",
          "transactionIndex": "0x1",
          "logIndex": "0x1",
          "removed": false
        },
        {
          "address": "0x3c604069c87256bbab9cc3ff678410275b156755",
          "topics": [
            "0xddf252ad1be2c89b69c2b068fc378daa952ba7f163c4a11628f55a4df523b3ef",
            "0x00000000000000000000000028482b1279e442f49ee76351801232d58f341cb9",
            "0x000000000000000000000000fb3e0c6f74eb1a21cc1da29aec80d2dfe6c9a317"
          ],
          "data": "0x0000000000000000000000000000000000000000000000000000000000989680",
          "blockHash": "0x1511f9acde90e58b30d767f324d58e60ad6589febe2d287a1ccfeeed4a608b21",
          "blockNumber": "0xe89ee89",
          "blockTimestamp": "0x699739d5",
          "transactionHash": "0x86b743ad59d43a6d07aa368ef506e042fde848d9a002a178c3a33c2a9ea30df8",
          "transactionIndex": "0x1",
          "logIndex": "0x2",
          "removed": false
        },
        {
          "address": "0x3cbe896e5e4093d6bf8dc0dc7a44c50552c0651e",
          "topics": [
            "0xddf252ad1be2c89b69c2b068fc378daa952ba7f163c4a11628f55a4df523b3ef",
            "0x00000000000000000000000028482b1279e442f49ee76351801232d58f341cb9",
            "0x000000000000000000000000fb3e0c6f74eb1a21cc1da29aec80d2dfe6c9a317"
          ],
          "data": "0x0000000000000000000000000000000000000000000000000000000000989680",
          "blockHash": "0x1511f9acde90e58b30d767f324d58e60ad6589febe2d287a1ccfeeed4a608b21",
          "blockNumber": "0xe89ee89",
          "blockTimestamp": "0x699739d5",
          "transactionHash": "0x86b743ad59d43a6d07aa368ef506e042fde848d9a002a178c3a33c2a9ea30df8",
          "transactionIndex": "0x1",
          "logIndex": "0x3",
          "removed": false
        }
      ],
      "logsBloom": "0x0000004000000000000000000000000a00000000002010000000000000000000000000000000000010000000010000000000000080000000000000000000004000000000002000000400000c000000000000000000000000000000000000000000000000020400000000002000000800000000000000000000000010000000000000400001000000000000000000000000000000000000080000000000000000000004200000000000000000000000000000000400000000000000004000000800000002000000000000110000000000000000000000000000000000000020000000000040000000400000000000000004000000000000000000000000001804",
      "type": "0x2",
      "transactionHash": "0x86b743ad59d43a6d07aa368ef506e042fde848d9a002a178c3a33c2a9ea30df8",
      "transactionIndex": "0x1",
      "blockHash": "0x1511f9acde90e58b30d767f324d58e60ad6589febe2d287a1ccfeeed4a608b21",
      "blockNumber": "0xe89ee89",
      "gasUsed": "0x685e1",
      "effectiveGasPrice": "0x1315be0",
      "from": "0x28482b1279e442f49ee76351801232d58f341cb9",
      "to": "0xac631556d3d4019c95769033b5e719dd77124bac",
      "contractAddress": null,
      "gasUsedForL1": "0x934e",
      "l1BlockNumber": "0x9d1208",
      "timeboosted": false
    }
  ],
  "libraries": [],
  "pending": [],
  "returns": {},
  "timestamp": 1771518422104,
  "chain": 421614,
  "commit": "aab56a2"
}