{
  "transactions": [
    {
      "hash": "0x44c7ffad29d721fa09cc85fcd1925788d6082c857bd97e97bdd1891803837968",
      "transactionType": "CALL",
      "contractName": null,
      "contractAddress": "0x3c604069c87256bbab9cc3ff678410275b156755",
      "function": "approve(address,uint256)",
      "arguments": [
        "0x000000000022D473030F116dDEE9F6B43aC78BA3",
        "115792089237316195423570985008687907853269984665640564039457584007913129639935"
      ],
      "transaction": {
        "from": "0x28482b1279e442f49ee76351801232d58f341cb9",
        "to": "0x3c604069c87256bbab9cc3ff678410275b156755",
        "gas": "0x9607",
        "value": "0x0",
        "input": "0x095ea7b3000000000000000000000000000000000022d473030f116ddee9f6b43ac78ba3ffffffffffffffffffffffffffffffffffffffffffffffffffffffffffffffff",
        "nonce": "0xca",
        "chainId": "0x66eee"
      },
      "additionalContracts": [],
      "isFixedGasLimit": false
    },
    {
      "hash": "0x0b3c5b5e3874f113fde28964a6c7054167bf8bf8af2d984755e84519d4a1a3d1",
      "transactionType": "CALL",
      "contractName": null,
      "contractAddress": "0x3cbe896e5e4093d6bf8dc0dc7a44c50552c0651e",
      "function": "approve(address,uint256)",
      "arguments": [
        "0x000000000022D473030F116dDEE9F6B43aC78BA3",
        "115792089237316195423570985008687907853269984665640564039457584007913129639935"
      ],
      "transaction": {
        "from": "0x28482b1279e442f49ee76351801232d58f341cb9",
        "to": "0x3cbe896e5e4093d6bf8dc0dc7a44c50552c0651e",
        "gas": "0x9607",
        "value": "0x0",
        "input": "0x095ea7b3000000000000000000000000000000000022d473030f116ddee9f6b43ac78ba3ffffffffffffffffffffffffffffffffffffffffffffffffffffffffffffffff",
        "nonce": "0xcb",
        "chainId": "0x66eee"
      },
      "additionalContracts": [],
      "isFixedGasLimit": false
    },
    {
      "hash": "0xe009f53360d8ce7bd38db01984894b007d0c59c92b5ea03e6b11b01ffa86145c",
      "transactionType": "CALL",
      "contractName": null,
      "contractAddress": "0x000000000022d473030f116ddee9f6b43ac78ba3",
      "function": "approve(address,address,uint160,uint48)",
      "arguments": [
        "0x3c604069c87256BBab9CC3fF678410275B156755",
        "0xAc631556d3d4019C95769033B5E719dD77124BAc",
        "1461501637330902918203684832716283019655932542975",
        "281474976710655"
      ],
      "transaction": {
        "from": "0x28482b1279e442f49ee76351801232d58f341cb9",
        "to": "0x000000000022d473030f116ddee9f6b43ac78ba3",
        "gas": "0xa2f3",
        "value": "0x0",
        "input": "0x87517c450000000000000000000000003c604069c87256bbab9cc3ff678410275b156755000000000000000000000000ac631556d3d4019c95769033b5e719dd77124bac000000000000000000000000ffffffffffffffffffffffffffffffffffffffff0000000000000000000000000000000000000000000000000000ffffffffffff",
        "nonce": "0xcc",
        "chainId": "0x66eee"
      },
      "additionalContracts": [],
      "isFixedGasLimit": false
    },
    {
      "hash": "0x4c0ba0d89cb57a6be80ffa1bc77e0064174860a1526efeb8b4b9484165fa5cf7",
      "transactionType": "CALL",
      "contractName": null,
      "contractAddress": "0x000000000022d473030f116ddee9f6b43ac78ba3",
      "function": "approve(address,address,uint160,uint48)",
      "arguments": [
        "0x3CBe896e5E4093d6BF8Dc0DC7a44C50552c0651E",
        "0xAc631556d3d4019C95769033B5E719dD77124BAc",
        "1461501637330902918203684832716283019655932542975",
        "281474976710655"
      ],
      "transaction": {
        "from": "0x28482b1279e442f49ee76351801232d58f341cb9",
        "to": "0x000000000022d473030f116ddee9f6b43ac78ba3",
        "gas": "0xa2f3",
        "value": "0x0",
        "input": "0x87517c450000000000000000000000003cbe896e5e4093d6bf8dc0dc7a44c50552c0651e000000000000000000000000ac631556d3d4019c95769033b5e719dd77124bac000000000000000000000000ffffffffffffffffffffffffffffffffffffffff0000000000000000000000000000000000000000000000000000ffffffffffff",
        "nonce": "0xcd",
        "chainId": "0x66eee"
      },
      "additionalContracts": [],
      "isFixedGasLimit": false
    },
    {
      "hash": "0x970f40cd11c25573ed2d3bc83422ef0bf1524f30c0c85817633262332a8a0e65",
      "transactionType": "CALL",
      "contractName": null,
      "contractAddress": "0xac631556d3d4019c95769033b5e719dd77124bac",
      "function": "modifyLiquidities(bytes,uint256)",
      "arguments": [
        "0x0000000000000000000000000000000000000000000000000000000000000040000000000000000000000000000000000000000000000000000000000000008000000000000000000000000000000000000000000000000000000000000000030212120000000000000000000000000000000000000000000000000000000000000000000000000000000000000000000000000000000000000000000000000300000000000000000000000000000000000000000000000000000000000000600000000000000000000000000000000000000000000000000000000000000220000000000000000000000000000000000000000000000000000000000000026000000000000000000000000000000000000000000000000000000000000001a00000000000000000000000003c604069c87256bbab9cc3ff678410275b1567550000000000000000000000003cbe896e5e4093d6bf8dc0dc7a44c50552c0651e0000000000000000000000000000000000000000000000000000000000000bb8000000000000000000000000000000000000000000000000000000000000003c000000000000000000000000e3ea87fb759c3206a9595048732eb6a6000700c4ffffffffffffffffffffffffffffffffffffffffffffffffffffffffffffffc4000000000000000000000000000000000000000000000000000000000000003c00000000000000000000000000000000000000000000000000000000c6fd81610000000000000000000000000000000000000000000000008d8dadf544fc0000000000000000000000000000000000000000000000000000000000000098968000000000000000000000000028482b1279e442f49ee76351801232d58f341cb90000000000000000000000000000000000000000000000000000000000000180000000000000000000000000000000000000000000000000000000000000000000000000000000000000000000000000000000000000000000000000000000200000000000000000000000003c604069c87256bbab9cc3ff678410275b15675500000000000000000000000000000000000000000000000000000000000000200000000000000000000000003cbe896e5e4093d6bf8dc0dc7a44c50552c0651e",
        "1771627755"
      ],
      "transaction": {
        "from": "0x28482b1279e442f49ee76351801232d58f341cb9",
        "to": "0xac631556d3d4019c95769033b5e719dd77124bac",
        "gas": "0x46949",
        "value": "0x0",
        "input": "0xdd46508f0000000000000000000000000000000000000000000000000000000000000040000000000000000000000000000000000000000000000000000000006998e4eb00000000000000000000000000000000000000000000000000000000000003400000000000000000000000000000000000000000000000000000000000000040000000000000000000000000000000000000000000000000000000000000008000000000000000000000000000000000000000000000000000000000000000030212120000000000000000000000000000000000000000000000000000000000000000000000000000000000000000000000000000000000000000000000000300000000000000000000000000000000000000000000000000000000000000600000000000000000000000000000000000000000000000000000000000000220000000000000000000000000000000000000000000000000000000000000026000000000000000000000000000000000000000000000000000000000000001a00000000000000000000000003c604069c87256bbab9cc3ff678410275b1567550000000000000000000000003cbe896e5e4093d6bf8dc0dc7a44c50552c0651e0000000000000000000000000000000000000000000000000000000000000bb8000000000000000000000000000000000000000000000000000000000000003c000000000000000000000000e3ea87fb759c3206a9595048732eb6a6000700c4ffffffffffffffffffffffffffffffffffffffffffffffffffffffffffffffc4000000000000000000000000000000000000000000000000000000000000003c00000000000000000000000000000000000000000000000000000000c6fd81610000000000000000000000000000000000000000000000008d8dadf544fc0000000000000000000000000000000000000000000000000000000000000098968000000000000000000000000028482b1279e442f49ee76351801232d58f341cb90000000000000000000000000000000000000000000000000000000000000180000000000000000000000000000000000000000000000000000000000000000000000000000000000000000000000000000000000000000000000000000000200000000000000000000000003c604069c87256bbab9cc3ff678410275b15675500000000000000000000000000000000000000000000000000000000000000200000000000000000000000003cbe896e5e4093d6bf8dc0dc7a44c50552c0651e",
        "nonce": "0xce",
        "chainId": "0x66eee"
      },
      "additionalContracts": [],
      "isFixedGasLimit": false
    }
  ],
  "receipts": [
    {
      "status": "0x1",
      "cumulativeGasUsed": "0x6fce",
      "logs": [
        {
          "address": "0x3c604069c87256bbab9cc3ff678410275b156755",
          "topics": [
            "0x8c5be1e5ebec7d5bd14f71427d1e84f3dd0314c0f7b2291e5b200ac8c7c3b925",
            "0x00000000000000000000000028482b1279e442f49ee76351801232d58f341cb9",
            "0x000000000000000000000000000000000022d473030f116ddee9f6b43ac78ba3"
          ],
          "data": "0xffffffffffffffffffffffffffffffffffffffffffffffffffffffffffffffff",
          "blockHash": "0x8081582160b2a315b8e5588a2a3ff1f7a20e4684f249492fac8757cd5e81fe46",
          "blockNumber": "0xe8df858",
          "blockTimestamp": "0x6998e3d3",
          "transactionHash": "0x44c7ffad29d721fa09cc85fcd1925788d6082c857bd97e97bdd1891803837968",
          "transactionIndex": "0x1",
          "logIndex": "0x0",
          "removed": false
        }
      ],
      "logsBloom": "0x00000000000000000000000000000002000000000000000000000000000000000000000000000000000000000000000000000000800000000000000000200000000000000000000000004000000000000000000000000800000000000000000000000000000000000000002000000000000000000000000000000000000000000000000000000000000000000000000000000000000000000000000000000000020000000000000000000000000000000000000000000000000000000000000800000000000000000000100000000000000000000000000000000000000000000010000000000000000000000000000000000000000000000000000000000800",
      "type": "0x2",
      "transactionHash": "0x44c7ffad29d721fa09cc85fcd1925788d6082c857bd97e97bdd1891803837968",
      "transactionIndex": "0x1",
      "blockHash": "0x8081582160b2a315b8e5588a2a3ff1f7a20e4684f249492fac8757cd5e81fe46",
      "blockNumber": "0xe8df858",
      "gasUsed": "0x6fce",
      "effectiveGasPrice": "0x13134d0",
      "from": "0x28482b1279e442f49ee76351801232d58f341cb9",
      "to": "0x3c604069c87256bbab9cc3ff678410275b156755",
      "contractAddress": null,
      "gasUsedForL1": "0x91d",
      "l1BlockNumber": "0x9d33bf",
      "timeboosted": false
    },
    {
      "status": "0x1",
      "cumulativeGasUsed": "0x6fcf",
      "logs": [
        {
          "address": "0x3cbe896e5e4093d6bf8dc0dc7a44c50552c0651e",
          "topics": [
            "0x8c5be1e5ebec7d5bd14f71427d1e84f3dd0314c0f7b2291e5b200ac8c7c3b925",
            "0x00000000000000000000000028482b1279e442f49ee76351801232d58f341cb9",
            "0x000000000000000000000000000000000022d473030f116ddee9f6b43ac78ba3"
          ],
          "data": "0xffffffffffffffffffffffffffffffffffffffffffffffffffffffffffffffff",
          "blockHash": "0x55277d75145dc0df0f05671079e9e3a169191bdf661e94d7df0b0c068dd2c340",
          "blockNumber": "0xe8df85a",
          "blockTimestamp": "0x6998e3d6",
          "transactionHash": "0x0b3c5b5e3874f113fde28964a6c7054167bf8bf8af2d984755e84519d4a1a3d1",
          "transactionIndex": "0x1",
          "logIndex": "0x0",
          "removed": false
        }
      ],
      "logsBloom": "0x00000000000000000000000000000002000000000000000000000000000000000000000000000000000000000000000000000000800000000000000000200000000000000000000000004004000000000000000000000800000000000000000000000000000000000000000000000000000000000000000000000000000000000000000000000000000000000000000000000000000000000000000000000000020000000000000000000000000000000000000000000000000000004000000000000000000000000000100000000000000000000000000000000000000000000010000000000000000000000000000000000000000000000000000000001000",
      "type": "0x2",
      "transactionHash": "0x0b3c5b5e3874f113fde28964a6c7054167bf8bf8af2d984755e84519d4a1a3d1",
      "transactionIndex": "0x1",
      "blockHash": "0x55277d75145dc0df0f05671079e9e3a169191bdf661e94d7df0b0c068dd2c340",
      "blockNumber": "0xe8df85a",
      "gasUsed": "0x6fcf",
      "effectiveGasPrice": "0x1312d00",
      "from": "0x28482b1279e442f49ee76351801232d58f341cb9",
      "to": "0x3cbe896e5e4093d6bf8dc0dc7a44c50552c0651e",
      "contractAddress": null,
      "gasUsedForL1": "0x91e",
      "l1BlockNumber": "0x9d33c0",
      "timeboosted": false
    },
    {
      "status": "0x1",
      "cumulativeGasUsed": "0x7960",
      "logs": [
        {
          "address": "0x000000000022d473030f116ddee9f6b43ac78ba3",
          "topics": [
            "0xda9fa7c1b00402c17d0161b249b1ab8bbec047c5a52207b9c112deffd817036b",
            "0x00000000000000000000000028482b1279e442f49ee76351801232d58f341cb9",
            "0x0000000000000000000000003c604069c87256bbab9cc3ff678410275b156755",
            "0x000000000000000000000000ac631556d3d4019c95769033b5e719dd77124bac"
          ],
          "data": "0x000000000000000000000000ffffffffffffffffffffffffffffffffffffffff0000000000000000000000000000000000000000000000000000ffffffffffff",
          "blockHash": "0x30f0770bc63c3adf5b12fff208205cd0f52a223b8f427ebc9cc99664efdc918d",
          "blockNumber": "0xe8df863",
          "blockTimestamp": "0x6998e3d9",
          "transactionHash": "0xe009f53360d8ce7bd38db01984894b007d0c59c92b5ea03e6b11b01ffa86145c",
          "transactionIndex": "0x1",
          "logIndex": "0x0",
          "removed": false
        }
      ],
      "logsBloom": "0x00410000000000000000000000000002000000000000000000000000000000000000000000000000100000000000000000000000800000000000000000080000000020000020000000000000000000000000000000000000000000000000000000000000000000000000000000000000000000000000000000800000000000000020000000000000000000000000000000000000000000000000000000000000000000000000000000000000000000000000000000000000000000080000000000000000000000000000110000000000000000000000000040000000000000000000000000000000000000000000000000000000000000000000000000000400",
      "type": "0x2",
      "transactionHash": "0xe009f53360d8ce7bd38db01984894b007d0c59c92b5ea03e6b11b01ffa86145c",
      "transactionIndex": "0x1",
      "blockHash": "0x30f0770bc63c3adf5b12fff208205cd0f52a223b8f427ebc9cc99664efdc918d",
      "blockNumber": "0xe8df863",
      "gasUsed": "0x7960",
      "effectiveGasPrice": "0x1313ca0",
      "from": "0x28482b1279e442f49ee76351801232d58f341cb9",
      "to": "0x000000000022d473030f116ddee9f6b43ac78ba3",
      "contractAddress": null,
      "gasUsedForL1": "0xc52",
      "l1BlockNumber": "0x9d33c0",
      "timeboosted": false
    },
    {
      "status": "0x1",
      "cumulativeGasUsed": "0x7960",
      "logs": [
        {
          "address": "0x000000000022d473030f116ddee9f6b43ac78ba3",
          "topics": [
            "0xda9fa7c1b00402c17d0161b249b1ab8bbec047c5a52207b9c112deffd817036b",
            "0x00000000000000000000000028482b1279e442f49ee76351801232d58f341cb9",
            "0x0000000000000000000000003cbe896e5e4093d6bf8dc0dc7a44c50552c0651e",
            "0x000000000000000000000000ac631556d3d4019c95769033b5e719dd77124bac"
          ],
          "data": "0x000000000000000000000000ffffffffffffffffffffffffffffffffffffffff0000000000000000000000000000000000000000000000000000ffffffffffff",
          "blockHash": "0xb5dd281b0f13760ec3b967944612a7cd6a0f5fc465dce74d2501e4dd441ab167",
          "blockNumber": "0xe8df868",
          "blockTimestamp": "0x6998e3dd",
          "transactionHash": "0x4c0ba0d89cb57a6be80ffa1bc77e0064174860a1526efeb8b4b9484165fa5cf7",
          "transactionIndex": "0x1",
          "logIndex": "0x0",
          "removed": false
        }
      ],
      "logsBloom": "0x00010000000000000000000000000002000000000000000000000000000000000000200000002000100000000000000000000000800000000000000000080000000000000020000000000000000000000000000000000000000000000000000000000000000000000000000000000000000000000000000000000000000000000020000000000000000000000000000000000000002000000000000000000000000000000000000000000000000000000000000000000000000000080000000000000000000000000000110000000000000000000000000040000000000000000000000000000000000000000000000000000000000000000000000000000400",
      "type": "0x2",
      "transactionHash": "0x4c0ba0d89cb57a6be80ffa1bc77e0064174860a1526efeb8b4b9484165fa5cf7",
      "transactionIndex": "0x1",
      "blockHash": "0xb5dd281b0f13760ec3b967944612a7cd6a0f5fc465dce74d2501e4dd441ab167",
      "blockNumber": "0xe8df868",
      "gasUsed": "0x7960",
      "effectiveGasPrice": "0x1313ca0",
      "from": "0x28482b1279e442f49ee76351801232d58f341cb9",
      "to": "0x000000000022d473030f116ddee9f6b43ac78ba3",
      "contractAddress": null,
      "gasUsedForL1": "0xc52",
      "l1BlockNumber": "0x9d33c0",
      "timeboosted": false
    },
    {
      "status": "0x1",
      "cumulativeGasUsed": "0x34a20",
      "logs": [
        {
          "address": "0xac631556d3d4019c95769033b5e719dd77124bac",
          "topics": [
            "0xddf252ad1be2c89b69c2b068fc378daa952ba7f163c4a11628f55a4df523b3ef",
            "0x0000000000000000000000000000000000000000000000000000000000000000",
            "0x00000000000000000000000028482b1279e442f49ee76351801232d58f341cb9",
            "0x00000000000000000000000000000000000000000000000000000000000000e1"
          ],
          "data": "0x",
          "blockHash": "0xe0b2a6854dbcc85cc701259fb49f238bdfa28f0321e02a4d42de2a18fdc833b6",
          "blockNumber": "0xe8df86d",
          "blockTimestamp": "0x6998e3e0",
          "transactionHash": "0x970f40cd11c25573ed2d3bc83422ef0bf1524f30c0c85817633262332a8a0e65",
          "transactionIndex": "0x1",
          "logIndex": "0x0",
          "removed": false
        },
        {
          "address": "0xfb3e0c6f74eb1a21cc1da29aec80d2dfe6c9a317",
          "topics": [
            "0xf208f4912782fd25c7f114ca3723a2d5dd6f3bcc3ac8db5af63baa85f711d5ec",
            "0xa2f2ba1fe0f2cf08686544d42608e24526d01ccdb7f3f52ce74cb03c4aab09d2",
            "0x000000000000000000000000ac631556d3d4019c95769033b5e719dd77124bac"
          ],
          "data": "0xffffffffffffffffffffffffffffffffffffffffffffffffffffffffffffffc4000000000000000000000000000000000000000000000000000000000000003c00000000000000000000000000000000000000000000000000000000c6fd816100000000000000000000000000000000000000000000000000000000000000e1",
          "blockHash": "0xe0b2a6854dbcc85cc701259fb49f238bdfa28f0321e02a4d42de2a18fdc833b6",
          "blockNumber": "0xe8df86d",
          "blockTimestamp": "0x6998e3e0",
          "transactionHash": "0x970f40cd11c25573ed2d3bc83422ef0bf1524f30c0c85817633262332a8a0e65",
          "transactionIndex": "0x1",
          "logIndex": "0x1",
          "removed": false
        },
        {
          "address": "0x3c604069c87256bbab9cc3ff678410275b156755",
          "topics": [
            "0xddf252ad1be2c89b69c2b068fc378daa952ba7f163c4a11628f55a4df523b3ef",
            "0x00000000000000000000000028482b1279e442f49ee76351801232d58f341cb9",
            "0x000000000000000000000000fb3e0c6f74eb1a21cc1da29aec80d2dfe6c9a317"
          ],
          "data": "0x000000000000000000000000000000000000000000000000000000000131a25c",
          "blockHash": "0xe0b2a6854dbcc85cc701259fb49f238bdfa28f0321e02a4d42de2a18fdc833b6",
          "blockNumber": "0xe8df86d",
          "blockTimestamp": "0x6998e3e0",
          "transactionHash": "0x970f40cd11c25573ed2d3bc83422ef0bf1524f30c0c85817633262332a8a0e65",
          "transactionIndex": "0x1",
          "logIndex": "0x2",
          "removed": false
        }
      ],
      "logsBloom": "0x0000004000000000000001000000000a000000000020100000000000000000002000000000000000100000000100000000000000800000000000000000000040000000000020000004000008000000000000000000000000000000000000000080000000020400000000002000000800000000000000000000000010000000000000000001000000000000000000000000000000000000000000000000000000000004200000000000000000000000000000000000000000000000000000000800000002000000000000110000000000000000000000000000000000000020000000000040000000400000000000000004000000000000000000000000000804",
      "type": "0x2",
      "transactionHash": "0x970f40cd11c25573ed2d3bc83422ef0bf1524f30c0c85817633262332a8a0e65",
      "transactionIndex": "0x1",
      "blockHash": "0xe0b2a6854dbcc85cc701259fb49f238bdfa28f0321e02a4d42de2a18fdc833b6",
      "blockNumber": "0xe8df86d",
      "gasUsed": "0x34a20",
      "effectiveGasPrice": "0x1316b80",
      "from": "0x28482b1279e442f49ee76351801232d58f341cb9",
      "to": "0xac631556d3d4019c95769033b5e719dd77124bac",
      "contractAddress": null,
      "gasUsedForL1": "0x155f",
      "l1BlockNumber": "0x9d33c0",
      "timeboosted": false
    }
  ],
  "libraries": [],
  "pending": [],
  "returns": {},
  "timestamp": 1771627490595,
  "chain": 421614,
  "commit": "cd573a3"
}