{
  "transactions": [
    {
      "hash": "0xcdd01ca53bf03eb26bd9370ac93fd4295edcc9e83a10a0f03c7ce87fbd28b4f5",
      "transactionType": "CALL",
      "contractName": null,
      "contractAddress": "0x05e73354cfdd6745c338b50bcfdfa3aa6fa03408",
      "function": "initialize((address,address,uint24,int24,address),uint160)",
      "arguments": [
        "(0x0Ea67A670a4182Db6eB18A6aAbC0f75195ef2EfC, 0x98346718c549Ed525201fC583796eCf2eaCC0aD5, 3000, 60, 0x441aAB0C9BD5E1EF2924d1b6ca8a6495938500c4)",
        "79228162514264337593543950336"
      ],
      "transaction": {
        "from": "0x28482b1279e442f49ee76351801232d58f341cb9",
        "to": "0x05e73354cfdd6745c338b50bcfdfa3aa6fa03408",
        "gas": "0x1277b",
        "value": "0x0",
        "input": "0x6276cbbe0000000000000000000000000ea67a670a4182db6eb18a6aabc0f75195ef2efc00000000000000000000000098346718c549ed525201fc583796ecf2eacc0ad50000000000000000000000000000000000000000000000000000000000000bb8000000000000000000000000000000000000000000000000000000000000003c000000000000000000000000441aab0c9bd5e1ef2924d1b6ca8a6495938500c40000000000000000000000000000000000000001000000000000000000000000",
        "nonce": "0x62",
        "chainId": "0x14a34"
      },
      "additionalContracts": [],
      "isFixedGasLimit": false
    },
    {
      "hash": "0xf67c2528894eb440b0bcad789caa05011a0a456a31a4a5882a2f68a1d161a4d2",
      "transactionType": "CALL",
      "contractName": null,
      "contractAddress": "0x0ea67a670a4182db6eb18a6aabc0f75195ef2efc",
      "function": "approve(address,uint256)",
      "arguments": [
        "0x000000000022D473030F116dDEE9F6B43aC78BA3",
        "115792089237316195423570985008687907853269984665640564039457584007913129639935"
      ],
      "transaction": {
        "from": "0x28482b1279e442f49ee76351801232d58f341cb9",
        "to": "0x0ea67a670a4182db6eb18a6aabc0f75195ef2efc",
        "gas": "0x962f",
        "value": "0x0",
        "input": "0x095ea7b3000000000000000000000000000000000022d473030f116ddee9f6b43ac78ba3ffffffffffffffffffffffffffffffffffffffffffffffffffffffffffffffff",
        "nonce": "0x63",
        "chainId": "0x14a34"
      },
      "additionalContracts": [],
      "isFixedGasLimit": false
    },
    {
      "hash": "0x32106ccb4b40ac0c832644617772831b41caea75654283807d3ef57478df5667",
      "transactionType": "CALL",
      "contractName": null,
      "contractAddress": "0x98346718c549ed525201fc583796ecf2eacc0ad5",
      "function": "approve(address,uint256)",
      "arguments": [
        "0x000000000022D473030F116dDEE9F6B43aC78BA3",
        "115792089237316195423570985008687907853269984665640564039457584007913129639935"
      ],
      "transaction": {
        "from": "0x28482b1279e442f49ee76351801232d58f341cb9",
        "to": "0x98346718c549ed525201fc583796ecf2eacc0ad5",
        "gas": "0xf935",
        "value": "0x0",
        "input": "0x095ea7b3000000000000000000000000000000000022d473030f116ddee9f6b43ac78ba3ffffffffffffffffffffffffffffffffffffffffffffffffffffffffffffffff",
        "nonce": "0x64",
        "chainId": "0x14a34"
      },
      "additionalContracts": [],
      "isFixedGasLimit": false
    },
    {
      "hash": "0x542c0012aae82564114d2c63c7fb56d6d467eb8269f8dc515db4a6d3c6704d63",
      "transactionType": "CALL",
      "contractName": null,
      "contractAddress": "0x000000000022d473030f116ddee9f6b43ac78ba3",
      "function": "approve(address,address,uint160,uint48)",
      "arguments": [
        "0x0Ea67A670a4182Db6eB18A6aAbC0f75195ef2EfC",
        "0x4B2C77d209D3405F41a037Ec6c77F7F5b8e2ca80",
        "1461501637330902918203684832716283019655932542975",
        "281474976710655"
      ],
      "transaction": {
        "from": "0x28482b1279e442f49ee76351801232d58f341cb9",
        "to": "0x000000000022d473030f116ddee9f6b43ac78ba3",
        "gas": "0x96a0",
        "value": "0x0",
        "input": "0x87517c450000000000000000000000000ea67a670a4182db6eb18a6aabc0f75195ef2efc0000000000000000000000004b2c77d209d3405f41a037ec6c77f7f5b8e2ca80000000000000000000000000ffffffffffffffffffffffffffffffffffffffff0000000000000000000000000000000000000000000000000000ffffffffffff",
        "nonce": "0x65",
        "chainId": "0x14a34"
      },
      "additionalContracts": [],
      "isFixedGasLimit": false
    },
    {
      "hash": "0x4000a72b29111d6fd8c29d791d31745b2dc665ba271106860a2823c78d6ea98f",
      "transactionType": "CALL",
      "contractName": null,
      "contractAddress": "0x000000000022d473030f116ddee9f6b43ac78ba3",
      "function": "approve(address,address,uint160,uint48)",
      "arguments": [
        "0x98346718c549Ed525201fC583796eCf2eaCC0aD5",
        "0x4B2C77d209D3405F41a037Ec6c77F7F5b8e2ca80",
        "1461501637330902918203684832716283019655932542975",
        "281474976710655"
      ],
      "transaction": {
        "from": "0x28482b1279e442f49ee76351801232d58f341cb9",
        "to": "0x000000000022d473030f116ddee9f6b43ac78ba3",
        "gas": "0x1112d",
        "value": "0x0",
        "input": "0x87517c4500000000000000000000000098346718c549ed525201fc583796ecf2eacc0ad50000000000000000000000004b2c77d209d3405f41a037ec6c77f7f5b8e2ca80000000000000000000000000ffffffffffffffffffffffffffffffffffffffff0000000000000000000000000000000000000000000000000000ffffffffffff",
        "nonce": "0x66",
        "chainId": "0x14a34"
      },
      "additionalContracts": [],
      "isFixedGasLimit": false
    },
    {
      "hash": "0x154a7c26b3772e4a5d1a76ddcfbc10595e1a60c42406e924a3af5824f0ad180a",
      "transactionType": "CALL",
      "contractName": null,
      "contractAddress": "0x4b2c77d209d3405f41a037ec6c77f7f5b8e2ca80",
      "function": "modifyLiquidities(bytes,uint256)",
      "arguments": [
        "0x0000000000000000000000000000000000000000000000000000000000000040000000000000000000000000000000000000000000000000000000000000008000000000000000000000000000000000000000000000000000000000000000030212120000000000000000000000000000000000000000000000000000000000000000000000000000000000000000000000000000000000000000000000000300000000000000000000000000000000000000000000000000000000000000600000000000000000000000000000000000000000000000000000000000000220000000000000000000000000000000000000000000000000000000000000026000000000000000000000000000000000000000000000000000000000000001a00000000000000000000000000ea67a670a4182db6eb18a6aabc0f75195ef2efc00000000000000000000000098346718c549ed525201fc583796ecf2eacc0ad50000000000000000000000000000000000000000000000000000000000000bb8000000000000000000000000000000000000000000000000000000000000003c000000000000000000000000441aab0c9bd5e1ef2924d1b6ca8a6495938500c4ffffffffffffffffffffffffffffffffffffffffffffffffffffffffffffffc4000000000000000000000000000000000000000000000000000000000000003c00000000000000000000000000000000000000000000000000000000c6fd81610000000000000000000000000000000000000000000000008d8dadf544fc0000000000000000000000000000000000000000000000000000000000000098968000000000000000000000000028482b1279e442f49ee76351801232d58f341cb90000000000000000000000000000000000000000000000000000000000000180000000000000000000000000000000000000000000000000000000000000000000000000000000000000000000000000000000000000000000000000000000200000000000000000000000000ea67a670a4182db6eb18a6aabc0f75195ef2efc000000000000000000000000000000000000000000000000000000000000002000000000000000000000000098346718c549ed525201fc583796ecf2eacc0ad5",
        "1770551600"
      ],
      "transaction": {
        "from": "0x28482b1279e442f49ee76351801232d58f341cb9",
        "to": "0x4b2c77d209d3405f41a037ec6c77f7f5b8e2ca80",
        "gas": "0x91485",
        "value": "0x0",
        "input": "0xdd46508f0000000000000000000000000000000000000000000000000000000000000040000000000000000000000000000000000000000000000000000000006988793000000000000000000000000000000000000000000000000000000000000003400000000000000000000000000000000000000000000000000000000000000040000000000000000000000000000000000000000000000000000000000000008000000000000000000000000000000000000000000000000000000000000000030212120000000000000000000000000000000000000000000000000000000000000000000000000000000000000000000000000000000000000000000000000300000000000000000000000000000000000000000000000000000000000000600000000000000000000000000000000000000000000000000000000000000220000000000000000000000000000000000000000000000000000000000000026000000000000000000000000000000000000000000000000000000000000001a00000000000000000000000000ea67a670a4182db6eb18a6aabc0f75195ef2efc00000000000000000000000098346718c549ed525201fc583796ecf2eacc0ad50000000000000000000000000000000000000000000000000000000000000bb8000000000000000000000000000000000000000000000000000000000000003c000000000000000000000000441aab0c9bd5e1ef2924d1b6ca8a6495938500c4ffffffffffffffffffffffffffffffffffffffffffffffffffffffffffffffc4000000000000000000000000000000000000000000000000000000000000003c00000000000000000000000000000000000000000000000000000000c6fd81610000000000000000000000000000000000000000000000008d8dadf544fc0000000000000000000000000000000000000000000000000000000000000098968000000000000000000000000028482b1279e442f49ee76351801232d58f341cb90000000000000000000000000000000000000000000000000000000000000180000000000000000000000000000000000000000000000000000000000000000000000000000000000000000000000000000000000000000000000000000000200000000000000000000000000ea67a670a4182db6eb18a6aabc0f75195ef2efc000000000000000000000000000000000000000000000000000000000000002000000000000000000000000098346718c549ed525201fc583796ecf2eacc0ad5",
        "nonce": "0x67",
        "chainId": "0x14a34"
      },
      "additionalContracts": [],
      "isFixedGasLimit": false
    }
  ],
  "receipts": [
    {
      "status": "0x1",
      "cumulativeGasUsed": "0x5480a6",
      "logs": [
        {
          "address": "0x05e73354cfdd6745c338b50bcfdfa3aa6fa03408",
          "topics": [
            "0xdd466e674ea557f56295e2d0218a125ea4b4f0f6f3307b95f85e6110838d6438",
            "0xa25df73f1dceaeed52f3e61e698a0a96fa3df77731e573121db128207aff3cb0",
            "0x0000000000000000000000000ea67a670a4182db6eb18a6aabc0f75195ef2efc",
            "0x00000000000000000000000098346718c549ed525201fc583796ecf2eacc0ad5"
          ],
          "data": "0x0000000000000000000000000000000000000000000000000000000000000bb8000000000000000000000000000000000000000000000000000000000000003c000000000000000000000000441aab0c9bd5e1ef2924d1b6ca8a6495938500c400000000000000000000000000000000000000010000000000000000000000000000000000000000000000000000000000000000000000000000000000000000",
          "blockHash": "0x0000000000000000000000000000000000000000000000000000000000000000",
          "blockNumber": "0x23a8ca7",
          "blockTimestamp": "0x6988782e",
          "transactionHash": "0xcdd01ca53bf03eb26bd9370ac93fd4295edcc9e83a10a0f03c7ce87fbd28b4f5",
          "transactionIndex": "0x1d",
          "logIndex": "0xcb",
          "removed": false
        }
      ],
      "logsBloom": "0x00000000010800000000000000000000000000000000000000000000000000000000000100000000000000000000000000000000000000000000000000000000000000000000000000000000000000000000000000000000000000000200000000000000000000000000000002000000004000000000000000000000000000000000000004000008000000000000000000000001000000000000004000200000000000000000000000000000000000000000000000000000000801000000000000000000001000800000000000000000000000000000000000000000000000000000000000000000000000000000000000000000000000000000000000000000",
      "type": "0x2",
      "transactionHash": "0xcdd01ca53bf03eb26bd9370ac93fd4295edcc9e83a10a0f03c7ce87fbd28b4f5",
      "transactionIndex": "0x1d",
      "blockHash": "0x0000000000000000000000000000000000000000000000000000000000000000",
      "blockNumber": "0x23a8ca7",
      "gasUsed": "0xca0a",
      "effectiveGasPrice": "0x124f80",
      "blobGasUsed": "0xae48",
      "from": "0x28482b1279e442f49ee76351801232d58f341cb9",
      "to": "0x05e73354cfdd6745c338b50bcfdfa3aa6fa03408",
      "contractAddress": null,
      "daFootprintGasScalar": "0x138",
      "l1BaseFeeScalar": "0x44d",
      "l1BlobBaseFee": "0x3a240db",
      "l1BlobBaseFeeScalar": "0xa118b",
      "l1Fee": "0x157992b04",
      "l1GasPrice": "0x3aef9874",
      "l1GasUsed": "0x8ff"
    },
    {
      "status": "0x1",
      "cumulativeGasUsed": "0x11b47",
      "logs": [
        {
          "address": "0x0ea67a670a4182db6eb18a6aabc0f75195ef2efc",
          "topics": [
            "0x8c5be1e5ebec7d5bd14f71427d1e84f3dd0314c0f7b2291e5b200ac8c7c3b925",
            "0x00000000000000000000000028482b1279e442f49ee76351801232d58f341cb9",
            "0x000000000000000000000000000000000022d473030f116ddee9f6b43ac78ba3"
          ],
          "data": "0xffffffffffffffffffffffffffffffffffffffffffffffffffffffffffffffff",
          "blockHash": "0x0000000000000000000000000000000000000000000000000000000000000000",
          "blockNumber": "0x23a8ca8",
          "blockTimestamp": "0x69887830",
          "transactionHash": "0xf67c2528894eb440b0bcad789caa05011a0a456a31a4a5882a2f68a1d161a4d2",
          "transactionIndex": "0x1",
          "logIndex": "0x0",
          "removed": false
        }
      ],
      "logsBloom": "0x00000000000000000000000000000002000000000000000000000000000000000000000000000000000000000000000000000000800000000000000000200000000000000000000000004000000000000000000000000800000000000000000000000000000000000000000000000000000000000000000000000000000000000000000000000000000000000000000000000000000000000000000000000000020000000000000000000000000000000000000000000000000000410000000000000000000000000000100000000000000000000000000000000000000000000010000000000000000000000000000000000000000000000000000000000000",
      "type": "0x2",
      "transactionHash": "0xf67c2528894eb440b0bcad789caa05011a0a456a31a4a5882a2f68a1d161a4d2",
      "transactionIndex": "0x1",
      "blockHash": "0x0000000000000000000000000000000000000000000000000000000000000000",
      "blockNumber": "0x23a8ca8",
      "gasUsed": "0x66b1",
      "effectiveGasPrice": "0x124f80",
      "blobGasUsed": "0x79e0",
      "from": "0x28482b1279e442f49ee76351801232d58f341cb9",
      "to": "0x0ea67a670a4182db6eb18a6aabc0f75195ef2efc",
      "contractAddress": null,
      "daFootprintGasScalar": "0x138",
      "l1BaseFeeScalar": "0x44d",
      "l1BlobBaseFee": "0x3a240db",
      "l1BlobBaseFeeScalar": "0xa118b",
      "l1Fee": "0x157992b04",
      "l1GasPrice": "0x3aef9874",
      "l1GasUsed": "0x640"
    },
    {
      "status": "0x1",
      "cumulativeGasUsed": "0x1cfb4",
      "logs": [
        {
          "address": "0x98346718c549ed525201fc583796ecf2eacc0ad5",
          "topics": [
            "0x8c5be1e5ebec7d5bd14f71427d1e84f3dd0314c0f7b2291e5b200ac8c7c3b925",
            "0x00000000000000000000000028482b1279e442f49ee76351801232d58f341cb9",
            "0x000000000000000000000000000000000022d473030f116ddee9f6b43ac78ba3"
          ],
          "data": "0xffffffffffffffffffffffffffffffffffffffffffffffffffffffffffffffff",
          "blockHash": "0x0000000000000000000000000000000000000000000000000000000000000000",
          "blockNumber": "0x23a8ca8",
          "blockTimestamp": "0x69887830",
          "transactionHash": "0x32106ccb4b40ac0c832644617772831b41caea75654283807d3ef57478df5667",
          "transactionIndex": "0x2",
          "logIndex": "0x1",
          "removed": false
        }
      ],
      "logsBloom": "0x00000000000000000000000000000002000000000000000000000000000000000000000000000000000000000000000000000000800000000000000000200000000000000000000000004000000000000000000000000800000000000000000000000000000000000000000000000000000000000000000000000000000000000000000000000000000000000000000000000000000000000000000000000000020000000000080000000000000000000000000000000000000000000000000000000000000000000000100000000000000001000000000000000000000100000010000000000000000000000000000000000000000000000000000000000000",
      "type": "0x2",
      "transactionHash": "0x32106ccb4b40ac0c832644617772831b41caea75654283807d3ef57478df5667",
      "transactionIndex": "0x2",
      "blockHash": "0x0000000000000000000000000000000000000000000000000000000000000000",
      "blockNumber": "0x23a8ca8",
      "gasUsed": "0xb46d",
      "effectiveGasPrice": "0x124f80",
      "blobGasUsed": "0x79e0",
      "from": "0x28482b1279e442f49ee76351801232d58f341cb9",
      "to": "0x98346718c549ed525201fc583796ecf2eacc0ad5",
      "contractAddress": null,
      "daFootprintGasScalar": "0x138",
      "l1BaseFeeScalar": "0x44d",
      "l1BlobBaseFee": "0x3a240db",
      "l1BlobBaseFeeScalar": "0xa118b",
      "l1Fee": "0x157992b04",
      "l1GasPrice": "0x3aef9874",
      "l1GasUsed": "0x640"
    },
    {
      "status": "0x1",
      "cumulativeGasUsed": "0x23cc2",
      "logs": [
        {
          "address": "0x000000000022d473030f116ddee9f6b43ac78ba3",
          "topics": [
            "0xda9fa7c1b00402c17d0161b249b1ab8bbec047c5a52207b9c112deffd817036b",
            "0x00000000000000000000000028482b1279e442f49ee76351801232d58f341cb9",
            "0x0000000000000000000000000ea67a670a4182db6eb18a6aabc0f75195ef2efc",
            "0x0000000000000000000000004b2c77d209d3405f41a037ec6c77f7f5b8e2ca80"
          ],
          "data": "0x000000000000000000000000ffffffffffffffffffffffffffffffffffffffff0000000000000000000000000000000000000000000000000000ffffffffffff",
          "blockHash": "0x0000000000000000000000000000000000000000000000000000000000000000",
          "blockNumber": "0x23a8ca8",
          "blockTimestamp": "0x69887830",
          "transactionHash": "0x542c0012aae82564114d2c63c7fb56d6d467eb8269f8dc515db4a6d3c6704d63",
          "transactionIndex": "0x3",
          "logIndex": "0x2",
          "removed": false
        }
      ],
      "logsBloom": "0x00010000000800010000000000000002000000000000000000000000000000000000000000000000000000000000000000000000800000000008000010080000000000000000000000000000000000000000000000000000000000000200000000000000000000000000000000000000000000000000000000000000000000000020000000000000000000000000000000000000000000000000000000000000000000000000000000000000000000000000000000000000000000080000000000000000000000800000100000000000000000000000000040000000000000000000000000000000000000000000000000000000000000000000000000000400",
      "type": "0x2",
      "transactionHash": "0x542c0012aae82564114d2c63c7fb56d6d467eb8269f8dc515db4a6d3c6704d63",
      "transactionIndex": "0x3",
      "blockHash": "0x0000000000000000000000000000000000000000000000000000000000000000",
      "blockNumber": "0x23a8ca8",
      "gasUsed": "0x6d0e",
      "effectiveGasPrice": "0x124f80",
      "blobGasUsed": "0x8748",
      "from": "0x28482b1279e442f49ee76351801232d58f341cb9",
      "to": "0x000000000022d473030f116ddee9f6b43ac78ba3",
      "contractAddress": null,
      "daFootprintGasScalar": "0x138",
      "l1BaseFeeScalar": "0x44d",
      "l1BlobBaseFee": "0x3a240db",
      "l1BlobBaseFeeScalar": "0xa118b",
      "l1Fee": "0x157992b04",
      "l1GasPrice": "0x3aef9874",
      "l1GasUsed": "0x6f5"
    },
    {
      "status": "0x1",
      "cumulativeGasUsed": "0x2f78c",
      "logs": [
        {
          "address": "0x000000000022d473030f116ddee9f6b43ac78ba3",
          "topics": [
            "0xda9fa7c1b00402c17d0161b249b1ab8bbec047c5a52207b9c112deffd817036b",
            "0x00000000000000000000000028482b1279e442f49ee76351801232d58f341cb9",
            "0x00000000000000000000000098346718c549ed525201fc583796ecf2eacc0ad5",
            "0x0000000000000000000000004b2c77d209d3405f41a037ec6c77f7f5b8e2ca80"
          ],
          "data": "0x000000000000000000000000ffffffffffffffffffffffffffffffffffffffff0000000000000000000000000000000000000000000000000000ffffffffffff",
          "blockHash": "0x0000000000000000000000000000000000000000000000000000000000000000",
          "blockNumber": "0x23a8ca8",
          "blockTimestamp": "0x69887830",
          "transactionHash": "0x4000a72b29111d6fd8c29d791d31745b2dc665ba271106860a2823c78d6ea98f",
          "transactionIndex": "0x4",
          "logIndex": "0x3",
          "removed": false
        }
      ],
      "logsBloom": "0x00010000000000010000000000000002000000000000000000000000000000000000000000000000000000000000000000000000800000000008000010080000000000000000000000000000000000000000000000000000000000000000000000000000000000000000000000000000004000000000000000000000000000000020000000000000000000000000000000000000000000000000004000000000000000000000000000000000000000000000000000000000000800080000000000000000000000000000100000000000000000000000000040000000000000000000000000000000000000000000000000000000000000000000000000000400",
      "type": "0x2",
      "transactionHash": "0x4000a72b29111d6fd8c29d791d31745b2dc665ba271106860a2823c78d6ea98f",
      "transactionIndex": "0x4",
      "blockHash": "0x0000000000000000000000000000000000000000000000000000000000000000",
      "blockNumber": "0x23a8ca8",
      "gasUsed": "0xbaca",
      "effectiveGasPrice": "0x124f80",
      "blobGasUsed": "0x8880",
      "from": "0x28482b1279e442f49ee76351801232d58f341cb9",
      "to": "0x000000000022d473030f116ddee9f6b43ac78ba3",
      "contractAddress": null,
      "daFootprintGasScalar": "0x138",
      "l1BaseFeeScalar": "0x44d",
      "l1BlobBaseFee": "0x3a240db",
      "l1BlobBaseFeeScalar": "0xa118b",
      "l1Fee": "0x157992b04",
      "l1GasPrice": "0x3aef9874",
      "l1GasUsed": "0x702"
    },
    {
      "status": "0x1",
      "cumulativeGasUsed": "0x92cf7",
      "logs": [
        {
          "address": "0x4b2c77d209d3405f41a037ec6c77f7f5b8e2ca80",
          "topics": [
            "0xddf252ad1be2c89b69c2b068fc378daa952ba7f163c4a11628f55a4df523b3ef",
            "0x0000000000000000000000000000000000000000000000000000000000000000",
            "0x00000000000000000000000028482b1279e442f49ee76351801232d58f341cb9",
            "0x00000000000000000000000000000000000000000000000000000000000042a4"
          ],
          "data": "0x",
          "blockHash": "0x0000000000000000000000000000000000000000000000000000000000000000",
          "blockNumber": "0x23a8ca8",
          "blockTimestamp": "0x69887830",
          "transactionHash": "0x154a7c26b3772e4a5d1a76ddcfbc10595e1a60c42406e924a3af5824f0ad180a",
          "transactionIndex": "0x5",
          "logIndex": "0x4",
          "removed": false
        },
        {
          "address": "0x05e73354cfdd6745c338b50bcfdfa3aa6fa03408",
          "topics": [
            "0xf208f4912782fd25c7f114ca3723a2d5dd6f3bcc3ac8db5af63baa85f711d5ec",
            "0xa25df73f1dceaeed52f3e61e698a0a96fa3df77731e573121db128207aff3cb0",
            "0x0000000000000000000000004b2c77d209d3405f41a037ec6c77f7f5b8e2ca80"
          ],
          "data": "0xffffffffffffffffffffffffffffffffffffffffffffffffffffffffffffffc4000000000000000000000000000000000000000000000000000000000000003c00000000000000000000000000000000000000000000000000000000c6fd816100000000000000000000000000000000000000000000000000000000000042a4",
          "blockHash": "0x0000000000000000000000000000000000000000000000000000000000000000",
          "blockNumber": "0x23a8ca8",
          "blockTimestamp": "0x69887830",
          "transactionHash": "0x154a7c26b3772e4a5d1a76ddcfbc10595e1a60c42406e924a3af5824f0ad180a",
          "transactionIndex": "0x5",
          "logIndex": "0x5",
          "removed": false
        },
        {
          "address": "0x0ea67a670a4182db6eb18a6aabc0f75195ef2efc",
          "topics": [
            "0xddf252ad1be2c89b69c2b068fc378daa952ba7f163c4a11628f55a4df523b3ef",
            "0x00000000000000000000000028482b1279e442f49ee76351801232d58f341cb9",
            "0x00000000000000000000000005e73354cfdd6745c338b50bcfdfa3aa6fa03408"
          ],
          "data": "0x0000000000000000000000000000000000000000000000000000000000989680",
          "blockHash": "0x0000000000000000000000000000000000000000000000000000000000000000",
          "blockNumber": "0x23a8ca8",
          "blockTimestamp": "0x69887830",
          "transactionHash": "0x154a7c26b3772e4a5d1a76ddcfbc10595e1a60c42406e924a3af5824f0ad180a",
          "transactionIndex": "0x5",
          "logIndex": "0x6",
          "removed": false
        },
        {
          "address": "0x98346718c549ed525201fc583796ecf2eacc0ad5",
          "topics": [
            "0xddf252ad1be2c89b69c2b068fc378daa952ba7f163c4a11628f55a4df523b3ef",
            "0x00000000000000000000000028482b1279e442f49ee76351801232d58f341cb9",
            "0x00000000000000000000000005e73354cfdd6745c338b50bcfdfa3aa6fa03408"
          ],
          "data": "0x0000000000000000000000000000000000000000000000000000000000989680",
          "blockHash": "0x0000000000000000000000000000000000000000000000000000000000000000",
          "blockNumber": "0x23a8ca8",
          "blockTimestamp": "0x69887830",
          "transactionHash": "0x154a7c26b3772e4a5d1a76ddcfbc10595e1a60c42406e924a3af5824f0ad180a",
          "transactionIndex": "0x5",
          "logIndex": "0x7",
          "removed": false
        }
      ],
      "logsBloom": "0x00000000010000010000000000000002000000000000000000000000000000000100000100000000000000000000000000000000800000000008000010000800000000000010000000000008000000000100000000100000000000008000000000000000020000000000000002000800000000000000000000000010000000000000000005000000000000000000000000000000000000000000000000000000000004000000080000000000000000000000000000000000000001410000000000000002001000000000100020000000000001000020000000000000000120000000000000000000000000000800000004000000000000000000000000000000",
      "type": "0x2",
      "transactionHash": "0x154a7c26b3772e4a5d1a76ddcfbc10595e1a60c42406e924a3af5824f0ad180a",
      "transactionIndex": "0x5",
      "blockHash": "0x0000000000000000000000000000000000000000000000000000000000000000",
      "blockNumber": "0x23a8ca8",
      "gasUsed": "0x6356b",
      "effectiveGasPrice": "0x124f80",
      "blobGasUsed": "0x14b80",
      "from": "0x28482b1279e442f49ee76351801232d58f341cb9",
      "to": "0x4b2c77d209d3405f41a037ec6c77f7f5b8e2ca80",
      "contractAddress": null,
      "daFootprintGasScalar": "0x138",
      "l1BaseFeeScalar": "0x44d",
      "l1BlobBaseFee": "0x3a240db",
      "l1BlobBaseFeeScalar": "0xa118b",
      "l1Fee": "0x157992b04",
      "l1GasPrice": "0x3aef9874",
      "l1GasUsed": "0x110c"
    }
  ],
  "libraries": [],
  "pending": [],
  "returns": {},
  "timestamp": 1770551342,
  "chain": 84532,
  "commit": "4ddc642"
}