{
  "transactions": [
    {
      "hash": "0xc1f9e42fdcc36c418b477e4a507edc36c47ccee012d2068439307bdf3edb9a6f",
      "transactionType": "CALL",
      "contractName": null,
      "contractAddress": "0x3c604069c87256bbab9cc3ff678410275b156755",
      "function": "transfer(address,uint256)",
      "arguments": [
        "0xe3ea87fB759C3206A9595048732eb6A6000700C4",
        "25000000000000000000000"
      ],
      "transaction": {
        "from": "0x28482b1279e442f49ee76351801232d58f341cb9",
        "to": "0x3c604069c87256bbab9cc3ff678410275b156755",
        "gas": "0x17765",
        "value": "0x0",
        "input": "0xa9059cbb000000000000000000000000e3ea87fb759c3206a9595048732eb6a6000700c400000000000000000000000000000000000000000000054b40b1f852bda00000",
        "nonce": "0xa0",
        "chainId": "0x66eee"
      },
      "additionalContracts": [],
      "isFixedGasLimit": false
    },
    {
      "hash": "0x88670899e3248647547147cfe5ef713e923f88e9134a438dbb42ac5938a6a066",
      "transactionType": "CALL",
      "contractName": null,
      "contractAddress": "0x3cbe896e5e4093d6bf8dc0dc7a44c50552c0651e",
      "function": "transfer(address,uint256)",
      "arguments": [
        "0xe3ea87fB759C3206A9595048732eb6A6000700C4",
        "25000000000"
      ],
      "transaction": {
        "from": "0x28482b1279e442f49ee76351801232d58f341cb9",
        "to": "0x3cbe896e5e4093d6bf8dc0dc7a44c50552c0651e",
        "gas": "0x17726",
        "value": "0x0",
        "input": "0xa9059cbb000000000000000000000000e3ea87fb759c3206a9595048732eb6a6000700c400000000000000000000000000000000000000000000000000000005d21dba00",
        "nonce": "0xa1",
        "chainId": "0x66eee"
      },
      "additionalContracts": [],
      "isFixedGasLimit": false
    }
  ],
  "receipts": [
    {
      "status": "0x1",
      "cumulativeGasUsed": "0x10d1d",
      "logs": [
        {
          "address": "0x3c604069c87256bbab9cc3ff678410275b156755",
          "topics": [
            "0xddf252ad1be2c89b69c2b068fc378daa952ba7f163c4a11628f55a4df523b3ef",
            "0x00000000000000000000000028482b1279e442f49ee76351801232d58f341cb9",
            "0x000000000000000000000000e3ea87fb759c3206a9595048732eb6a6000700c4"
          ],
          "data": "0x00000000000000000000000000000000000000000000054b40b1f852bda00000",
          "blockHash": "0x9ca8ec05ed1451fb1d31842c998e0bb87555623cbf749f46e40f13dab2173eb8",
          "blockNumber": "0xe89f364",
          "blockTimestamp": "0x69973ba0",
          "transactionHash": "0xc1f9e42fdcc36c418b477e4a507edc36c47ccee012d2068439307bdf3edb9a6f",
          "transactionIndex": "0x1",
          "logIndex": "0x0",
          "removed": false
        }
      ],
      "logsBloom": "0x00000000000000000000000000000002000000000000200000000000000000000000000000000000000000000000000000000000800000000000000000000000000000000000000000000008000000000000000000000000000000000000000000000000000000000000002000000000000000000000000000000010000000000000000000000000000000000000000000000000000000000000000000000000000000000000000000000000000000000000000000000000000000000000000800000002000000000000100000000000000000000000000000000000000000000000000000000000000000000000000800000000010000000000000000000800",
      "type": "0x2",
      "transactionHash": "0xc1f9e42fdcc36c418b477e4a507edc36c47ccee012d2068439307bdf3edb9a6f",
      "transactionIndex": "0x1",
      "blockHash": "0x9ca8ec05ed1451fb1d31842c998e0bb87555623cbf749f46e40f13dab2173eb8",
      "blockNumber": "0xe89f364",
      "gasUsed": "0x10d1d",
      "effectiveGasPrice": "0x1313ca0",
      "from": "0x28482b1279e442f49ee76351801232d58f341cb9",
      "to": "0x3c604069c87256bbab9cc3ff678410275b156755",
      "contractAddress": null,
      "gasUsedForL1": "0x4416",
      "l1BlockNumber": "0x9d122b",
      "timeboosted": false
    },
    {
      "status": "0x1",
      "cumulativeGasUsed": "0x10c27",
      "logs": [
        {
          "address": "0x3cbe896e5e4093d6bf8dc0dc7a44c50552c0651e",
          "topics": [
            "0xddf252ad1be2c89b69c2b068fc378daa952ba7f163c4a11628f55a4df523b3ef",
            "0x00000000000000000000000028482b1279e442f49ee76351801232d58f341cb9",
            "0x000000000000000000000000e3ea87fb759c3206a9595048732eb6a6000700c4"
          ],
          "data": "0x00000000000000000000000000000000000000000000000000000005d21dba00",
          "blockHash": "0x4e8bdb4902874dcff8f72b24f37e12bbed93d039bceb0888051581eedc2d77dd",
          "blockNumber": "0xe89f369",
          "blockTimestamp": "0x69973ba1",
          "transactionHash": "0x88670899e3248647547147cfe5ef713e923f88e9134a438dbb42ac5938a6a066",
          "transactionIndex": "0x1",
          "logIndex": "0x0",
          "removed": false
        }
      ],
      "logsBloom": "0x0000000000000000000000000000000200000000000020000000000000000000000000000000000000000000000000000000000080000000000000000000000000000000000000000000000c000000000000000000000000000000000000000000000000000000000000000000000000000000000000000000000010000000000000000000000000000000000000000000000000000000000000000000000000000000000000000000000000000000000000000000000000000000004000000000000002000000000000100000000000000000000000000000000000000000000000000000000000000000000000000800000000010000000000000000001000",
      "type": "0x2",
      "transactionHash": "0x88670899e3248647547147cfe5ef713e923f88e9134a438dbb42ac5938a6a066",
      "transactionIndex": "0x1",
      "blockHash": "0x4e8bdb4902874dcff8f72b24f37e12bbed93d039bceb0888051581eedc2d77dd",
      "blockNumber": "0xe89f369",
      "gasUsed": "0x10c27",
      "effectiveGasPrice": "0x134bf10",
      "from": "0x28482b1279e442f49ee76351801232d58f341cb9",
      "to": "0x3cbe896e5e4093d6bf8dc0dc7a44c50552c0651e",
      "contractAddress": null,
      "gasUsedForL1": "0x4350",
      "l1BlockNumber": "0x9d122b",
      "timeboosted": false
    }
  ],
  "libraries": [],
  "pending": [],
  "returns": {},
  "timestamp": 1771518882308,
  "chain": 421614,
  "commit": "aab56a2"
}