{
  "transactions": [
    {
      "hash": "0x37c6284d8fafb09409f56ed662a5c66e117d981b69c778fc58441fa0b982483a",
      "transactionType": "CALL",
      "contractName": "PerpPositionManager",
      "contractAddress": "0xf3c9cdbaf6dc303fe302fbf81465de0a057ccf5e",
      "function": "createMarket(address,bytes32,address,uint256,uint256)",
      "arguments": [
        "0x0000000000000000000000000000000000000001",
        "0x7ea41243798f304c9efd5c2e0c82a273090146c4718014ecc8570eb373df2b78",
        "0x991EB2241b5F2875a5Cb4DBbA6450B343E8216be",
        "10000000000000000000",
        "50000000000000000"
      ],
      "transaction": {
        "from": "0x28482b1279e442f49ee76351801232d58f341cb9",
        "to": "0xf3c9cdbaf6dc303fe302fbf81465de0a057ccf5e",
        "gas": "0x42b50",
        "value": "0x0",
        "input": "0x1960d67000000000000000000000000000000000000000000000000000000000000000017ea41243798f304c9efd5c2e0c82a273090146c4718014ecc8570eb373df2b78000000000000000000000000991eb2241b5f2875a5cb4dbba6450b343e8216be0000000000000000000000000000000000000000000000008ac7230489e8000000000000000000000000000000000000000000000000000000b1a2bc2ec50000",
        "nonce": "0x26",
        "chainId": "0x66eee"
      },
      "additionalContracts": [],
      "isFixedGasLimit": false
    }
  ],
  "receipts": [
    {
      "status": "0x1",
      "cumulativeGasUsed": "0x329ef",
      "logs": [
        {
          "address": "0xf3c9cdbaf6dc303fe302fbf81465de0a057ccf5e",
          "topics": [
            "0xcd7563b9b64d7de41fe2184442cb2a1fb21b243dd8cd35f65835daff19e053a7",
            "0x0000000000000000000000000000000000000000000000000000000000000001"
          ],
          "data": "0x7ea41243798f304c9efd5c2e0c82a273090146c4718014ecc8570eb373df2b78000000000000000000000000991eb2241b5f2875a5cb4dbba6450b343e8216be0000000000000000000000000000000000000000000000008ac7230489e8000000000000000000000000000000000000000000000000000000b1a2bc2ec50000",
          "blockHash": "0x6ba7735b9d8f21cc1ea5005e8d8db45cbc0762a967e63e117a6a4858d9b91e79",
          "blockNumber": "0xe878144",
          "blockTimestamp": "0x69967941",
          "transactionHash": "0x37c6284d8fafb09409f56ed662a5c66e117d981b69c778fc58441fa0b982483a",
          "transactionIndex": "0x1",
          "logIndex": "0x0",
          "removed": false
        }
      ],
      "logsBloom": "0x00000000000000000000000000000000000000000000000000020000000000000000000000000000000000000000000000000000000000000000000000040000000000000000000000000000000000000000000000040000000000000000000000000000000000000000000000000000000000000000000000000000000000000000000000000000000000000000000000000001000004000000000000000000000000000000002000000000000000000000000000000000000100000000000000000000000000000000000000000000000000000000000000000000000040000000000000000000000000000000000002000000000000000000000000000000",
      "type": "0x2",
      "transactionHash": "0x37c6284d8fafb09409f56ed662a5c66e117d981b69c778fc58441fa0b982483a",
      "transactionIndex": "0x1",
      "blockHash": "0x6ba7735b9d8f21cc1ea5005e8d8db45cbc0762a967e63e117a6a4858d9b91e79",
      "blockNumber": "0xe878144",
      "gasUsed": "0x329ef",
      "effectiveGasPrice": "0x1313ca0",
      "from": "0x28482b1279e442f49ee76351801232d58f341cb9",
      "to": "0xf3c9cdbaf6dc303fe302fbf81465de0a057ccf5e",
      "contractAddress": null,
      "gasUsedForL1": "0x73",
      "l1BlockNumber": "0x9d02de",
      "timeboosted": false
    }
  ],
  "libraries": [],
  "pending": [],
  "returns": {},
  "timestamp": 1771469122242,
  "chain": 421614,
  "commit": "87400b1"
}