{
  "transactions": [
    {
      "hash": "0x6d8b0a95bee5703715dae4b705db64dfe0b3216efbc2c63761ae22a2c29e7fa0",
      "transactionType": "CALL",
      "contractName": "PerpPositionManager",
      "contractAddress": "0xf3c9cdbaf6dc303fe302fbf81465de0a057ccf5e",
      "function": "setExecutor(address)",
      "arguments": [
        "0xe3ea87fB759C3206A9595048732eb6A6000700C4"
      ],
      "transaction": {
        "from": "0x28482b1279e442f49ee76351801232d58f341cb9",
        "to": "0xf3c9cdbaf6dc303fe302fbf81465de0a057ccf5e",
        "gas": "0xfc49",
        "value": "0x0",
        "input": "0x1c3c0ea8000000000000000000000000e3ea87fb759c3206a9595048732eb6a6000700c4",
        "nonce": "0xb7",
        "chainId": "0x66eee"
      },
      "additionalContracts": [],
      "isFixedGasLimit": false
    }
  ],
  "receipts": [
    {
      "status": "0x1",
      "cumulativeGasUsed": "0xb043",
      "logs": [
        {
          "address": "0xf3c9cdbaf6dc303fe302fbf81465de0a057ccf5e",
          "topics": [
            "0xfb9f0b64a386bfdab88dc9625b782778e7f8eea8cf15b7fe829cdbc603fd4794",
            "0x0000000000000000000000009c8e0d45b243381fb0da88c2171127d3c01940c4",
            "0x000000000000000000000000e3ea87fb759c3206a9595048732eb6a6000700c4"
          ],
          "data": "0x",
          "blockHash": "0xaa820f3dcd50fc8e42ac47ff995f213511db90fb56265286bdb629885d514487",
          "blockNumber": "0xe8a351f",
          "blockTimestamp": "0x6997542f",
          "transactionHash": "0x6d8b0a95bee5703715dae4b705db64dfe0b3216efbc2c63761ae22a2c29e7fa0",
          "transactionIndex": "0x1",
          "logIndex": "0x0",
          "removed": false
        }
      ],
      "logsBloom": "0x00000000000000000000000000000000000000000000200000000000000000000000000000000000010000000000000000000000000000000000000000000000000000000000000000000000000000000000000000000008000000000000000000020000000000000000000000000000000040000000000000000000000000000000000000000000000000000000000000000000000004000000000000000000000000000004000000000000000000000000000000000000000100000000000000000000000000000000000000040000000000000000000000000000000000000000000000000000000000000000000802000000010000000000000000000000",
      "type": "0x2",
      "transactionHash": "0x6d8b0a95bee5703715dae4b705db64dfe0b3216efbc2c63761ae22a2c29e7fa0",
      "transactionIndex": "0x1",
      "blockHash": "0xaa820f3dcd50fc8e42ac47ff995f213511db90fb56265286bdb629885d514487",
      "blockNumber": "0xe8a351f",
      "gasUsed": "0xb043",
      "effectiveGasPrice": "0x1314470",
      "from": "0x28482b1279e442f49ee76351801232d58f341cb9",
      "to": "0xf3c9cdbaf6dc303fe302fbf81465de0a057ccf5e",
      "contractAddress": null,
      "gasUsedForL1": "0x3961",
      "l1BlockNumber": "0x9d142b",
      "timeboosted": false
    }
  ],
  "libraries": [],
  "pending": [],
  "returns": {},
  "timestamp": 1771525168359,
  "chain": 421614,
  "commit": "b9ca765"
}